{
    "contractName": "CarbonDollar",
    "abi": [
        {
            "constant": true,
            "inputs": [],
            "name": "name",
            "outputs": [
                {
                    "name": "",
                    "type": "string"
                }
            ],
            "payable": false,
            "stateMutability": "view",
            "type": "function",
            "signature": "0x06fdde03"
        },
        {
            "constant": true,
            "inputs": [],
            "name": "decimals",
            "outputs": [
                {
                    "name": "",
                    "type": "uint8"
                }
            ],
            "payable": false,
            "stateMutability": "view",
            "type": "function",
            "signature": "0x313ce567"
        },
        {
            "constant": false,
            "inputs": [
                {
                    "name": "spender",
                    "type": "address"
                },
                {
                    "name": "addedValue",
                    "type": "uint256"
                }
            ],
            "name": "increaseAllowance",
            "outputs": [
                {
                    "name": "",
                    "type": "bool"
                }
            ],
            "payable": false,
            "stateMutability": "nonpayable",
            "type": "function",
            "signature": "0x39509351"
        },
        {
            "constant": false,
            "inputs": [],
            "name": "unpause",
            "outputs": [],
            "payable": false,
            "stateMutability": "nonpayable",
            "type": "function",
            "signature": "0x3f4ba83a"
        },
        {
            "constant": false,
            "inputs": [],
            "name": "claimOwnership",
            "outputs": [],
            "payable": false,
            "stateMutability": "nonpayable",
            "type": "function",
            "signature": "0x4e71e0c8"
        },
        {
            "constant": true,
            "inputs": [],
            "name": "paused",
            "outputs": [
                {
                    "name": "",
                    "type": "bool"
                }
            ],
            "payable": false,
            "stateMutability": "view",
            "type": "function",
            "signature": "0x5c975abb"
        },
        {
            "constant": true,
            "inputs": [],
            "name": "balances",
            "outputs": [
                {
                    "name": "",
                    "type": "address"
                }
            ],
            "payable": false,
            "stateMutability": "view",
            "type": "function",
            "signature": "0x7bb98a68"
        },
        {
            "constant": false,
            "inputs": [],
            "name": "pause",
            "outputs": [],
            "payable": false,
            "stateMutability": "nonpayable",
            "type": "function",
            "signature": "0x8456cb59"
        },
        {
            "constant": true,
            "inputs": [],
            "name": "isMethodEnabled",
            "outputs": [
                {
                    "name": "",
                    "type": "bool"
                }
            ],
            "payable": false,
            "stateMutability": "view",
            "type": "function",
            "signature": "0x88fa2617"
        },
        {
            "constant": true,
            "inputs": [],
            "name": "owner",
            "outputs": [
                {
                    "name": "",
                    "type": "address"
                }
            ],
            "payable": false,
            "stateMutability": "view",
            "type": "function",
            "signature": "0x8da5cb5b"
        },
        {
            "constant": true,
            "inputs": [],
            "name": "symbol",
            "outputs": [
                {
                    "name": "",
                    "type": "string"
                }
            ],
            "payable": false,
            "stateMutability": "view",
            "type": "function",
            "signature": "0x95d89b41"
        },
        {
            "constant": false,
            "inputs": [
                {
                    "name": "spender",
                    "type": "address"
                },
                {
                    "name": "subtractedValue",
                    "type": "uint256"
                }
            ],
            "name": "decreaseAllowance",
            "outputs": [
                {
                    "name": "",
                    "type": "bool"
                }
            ],
            "payable": false,
            "stateMutability": "nonpayable",
            "type": "function",
            "signature": "0xa457c2d7"
        },
        {
            "constant": true,
            "inputs": [],
            "name": "blacklist",
            "outputs": [
                {
                    "name": "",
                    "type": "address"
                }
            ],
            "payable": false,
            "stateMutability": "view",
            "type": "function",
            "signature": "0xa4b5fa56"
        },
        {
            "constant": false,
            "inputs": [],
            "name": "unlock",
            "outputs": [],
            "payable": false,
            "stateMutability": "nonpayable",
            "type": "function",
            "signature": "0xa69df4b5"
        },
        {
            "constant": true,
            "inputs": [],
            "name": "pendingOwner",
            "outputs": [
                {
                    "name": "",
                    "type": "address"
                }
            ],
            "payable": false,
            "stateMutability": "view",
            "type": "function",
            "signature": "0xe30c3978"
        },
        {
            "constant": false,
            "inputs": [
                {
                    "name": "_newOwner",
                    "type": "address"
                }
            ],
            "name": "transferOwnership",
            "outputs": [],
            "payable": false,
            "stateMutability": "nonpayable",
            "type": "function",
            "signature": "0xf2fde38b"
        },
        {
            "constant": false,
            "inputs": [],
            "name": "lock",
            "outputs": [],
            "payable": false,
            "stateMutability": "nonpayable",
            "type": "function",
            "signature": "0xf83d08ba"
        },
        {
            "inputs": [],
            "payable": false,
            "stateMutability": "nonpayable",
            "type": "constructor",
            "signature": "constructor"
        },
        {
            "anonymous": false,
            "inputs": [
                {
                    "indexed": true,
                    "name": "to",
                    "type": "address"
                },
                {
                    "indexed": false,
                    "name": "value",
                    "type": "uint256"
                }
            ],
            "name": "Mint",
            "type": "event",
            "signature": "0x0f6798a560793a54c3bcfe86a93cde1e73087d944c0ea20544137d4121396885"
        },
        {
            "anonymous": false,
            "inputs": [
                {
                    "indexed": true,
                    "name": "burner",
                    "type": "address"
                },
                {
                    "indexed": false,
                    "name": "value",
                    "type": "uint256"
                }
            ],
            "name": "Burn",
            "type": "event",
            "signature": "0xcc16f5dbb4873280815c1ee09dbd06736cffcc184412cf7a71a0fdb75d397ca5"
        },
        {
            "anonymous": false,
            "inputs": [
                {
                    "indexed": true,
                    "name": "from",
                    "type": "address"
                },
                {
                    "indexed": true,
                    "name": "to",
                    "type": "address"
                },
                {
                    "indexed": false,
                    "name": "value",
                    "type": "uint256"
                }
            ],
            "name": "Transfer",
            "type": "event",
            "signature": "0xddf252ad1be2c89b69c2b068fc378daa952ba7f163c4a11628f55a4df523b3ef"
        },
        {
            "anonymous": false,
            "inputs": [
                {
                    "indexed": true,
                    "name": "owner",
                    "type": "address"
                },
                {
                    "indexed": true,
                    "name": "spender",
                    "type": "address"
                },
                {
                    "indexed": false,
                    "name": "value",
                    "type": "uint256"
                }
            ],
            "name": "Approval",
            "type": "event",
            "signature": "0x8c5be1e5ebec7d5bd14f71427d1e84f3dd0314c0f7b2291e5b200ac8c7c3b925"
        },
        {
            "anonymous": false,
            "inputs": [],
            "name": "Unlocked",
            "type": "event",
            "signature": "0x19aad37188a1d3921e29eb3c66acf43d81975e107cb650d58cca878627955fd6"
        },
        {
            "anonymous": false,
            "inputs": [],
            "name": "Locked",
            "type": "event",
            "signature": "0x0f2e5b6c72c6a4491efd919a9f9a409f324ef0708c11ee57d410c2cb06c0992b"
        },
        {
            "anonymous": false,
            "inputs": [],
            "name": "Pause",
            "type": "event",
            "signature": "0x6985a02210a168e66602d3235cb6db0e70f92b3ba4d376a33c0f3d9434bff625"
        },
        {
            "anonymous": false,
            "inputs": [],
            "name": "Unpause",
            "type": "event",
            "signature": "0x7805862f689e2f13df9f062ff482ad3ad112aca9e0847911ed832e158c525b33"
        },
        {
            "anonymous": false,
            "inputs": [
                {
                    "indexed": true,
                    "name": "previousOwner",
                    "type": "address"
                },
                {
                    "indexed": true,
                    "name": "newOwner",
                    "type": "address"
                }
            ],
            "name": "OwnershipTransferred",
            "type": "event",
            "signature": "0x8be0079c531659141344cd1fd0a4f28419497f9722a3daafe3b4186f6b6457e0"
        },
        {
            "constant": false,
            "inputs": [
                {
                    "name": "_to",
                    "type": "address"
                },
                {
                    "name": "_amount",
                    "type": "uint256"
                }
            ],
            "name": "mint",
            "outputs": [],
            "payable": false,
            "stateMutability": "nonpayable",
            "type": "function",
            "signature": "0x40c10f19"
        },
        {
            "constant": false,
            "inputs": [
                {
                    "name": "_amount",
                    "type": "uint256"
                }
            ],
            "name": "burn",
            "outputs": [],
            "payable": false,
            "stateMutability": "nonpayable",
            "type": "function",
            "signature": "0x42966c68"
        },
        {
            "constant": false,
            "inputs": [
                {
                    "name": "_spender",
                    "type": "address"
                },
                {
                    "name": "_value",
                    "type": "uint256"
                }
            ],
            "name": "approve",
            "outputs": [
                {
                    "name": "",
                    "type": "bool"
                }
            ],
            "payable": false,
            "stateMutability": "nonpayable",
            "type": "function",
            "signature": "0x095ea7b3"
        },
        {
            "constant": false,
            "inputs": [
                {
                    "name": "_spender",
                    "type": "address"
                },
                {
                    "name": "_addedValue",
                    "type": "uint256"
                }
            ],
            "name": "increaseApproval",
            "outputs": [
                {
                    "name": "",
                    "type": "bool"
                }
            ],
            "payable": false,
            "stateMutability": "nonpayable",
            "type": "function",
            "signature": "0xd73dd623"
        },
        {
            "constant": false,
            "inputs": [
                {
                    "name": "_spender",
                    "type": "address"
                },
                {
                    "name": "_subtractedValue",
                    "type": "uint256"
                }
            ],
            "name": "decreaseApproval",
            "outputs": [
                {
                    "name": "",
                    "type": "bool"
                }
            ],
            "payable": false,
            "stateMutability": "nonpayable",
            "type": "function",
            "signature": "0x66188463"
        },
        {
            "constant": false,
            "inputs": [
                {
                    "name": "_to",
                    "type": "address"
                },
                {
                    "name": "_amount",
                    "type": "uint256"
                }
            ],
            "name": "transfer",
            "outputs": [
                {
                    "name": "",
                    "type": "bool"
                }
            ],
            "payable": false,
            "stateMutability": "nonpayable",
            "type": "function",
            "signature": "0xa9059cbb"
        },
        {
            "constant": false,
            "inputs": [
                {
                    "name": "_from",
                    "type": "address"
                },
                {
                    "name": "_to",
                    "type": "address"
                },
                {
                    "name": "_amount",
                    "type": "uint256"
                }
            ],
            "name": "transferFrom",
            "outputs": [
                {
                    "name": "",
                    "type": "bool"
                }
            ],
            "payable": false,
            "stateMutability": "nonpayable",
            "type": "function",
            "signature": "0x23b872dd"
        },
        {
            "constant": false,
            "inputs": [
                {
                    "name": "_user",
                    "type": "address"
                },
                {
                    "name": "_blacklisted",
                    "type": "bool"
                }
            ],
            "name": "setBlacklistStatus",
            "outputs": [],
            "payable": false,
            "stateMutability": "nonpayable",
            "type": "function",
            "signature": "0x03d29d28"
        },
        {
            "constant": true,
            "inputs": [
                {
                    "name": "owner",
                    "type": "address"
                },
                {
                    "name": "spender",
                    "type": "address"
                }
            ],
            "name": "allowance",
            "outputs": [
                {
                    "name": "",
                    "type": "uint256"
                }
            ],
            "payable": false,
            "stateMutability": "view",
            "type": "function",
            "signature": "0xdd62ed3e"
        },
        {
            "constant": true,
            "inputs": [],
            "name": "totalSupply",
            "outputs": [
                {
                    "name": "",
                    "type": "uint256"
                }
            ],
            "payable": false,
            "stateMutability": "view",
            "type": "function",
            "signature": "0x18160ddd"
        },
        {
            "constant": true,
            "inputs": [
                {
                    "name": "_addr",
                    "type": "address"
                }
            ],
            "name": "balanceOf",
            "outputs": [
                {
                    "name": "",
                    "type": "uint256"
                }
            ],
            "payable": false,
            "stateMutability": "view",
            "type": "function",
            "signature": "0x70a08231"
        }
    ],
    "bytecode": "0x60806040526000600460146101000a81548160ff0219169083151502179055506000600460156101000a81548160ff0219169083151502179055503480156200004757600080fd5b5033600360006101000a81548173ffffffffffffffffffffffffffffffffffffffff021916908373ffffffffffffffffffffffffffffffffffffffff1602179055506000600460006101000a81548173ffffffffffffffffffffffffffffffffffffffff021916908373ffffffffffffffffffffffffffffffffffffffff160217905550620000d5620001a1565b604051809103906000f080158015620000f2573d6000803e3d6000fd5b50600560006101000a81548173ffffffffffffffffffffffffffffffffffffffff021916908373ffffffffffffffffffffffffffffffffffffffff1602179055506200013d620001b2565b604051809103906000f0801580156200015a573d6000803e3d6000fd5b50600660006101000a81548173ffffffffffffffffffffffffffffffffffffffff021916908373ffffffffffffffffffffffffffffffffffffffff160217905550620001c3565b6040516112c8806200432583390190565b60405161070780620055ed83390190565b61415280620001d36000396000f3fe60806040526004361061016a576000357c0100000000000000000000000000000000000000000000000000000000900463ffffffff16806303d29d281461016f57806306fdde03146101cc578063095ea7b31461025c57806318160ddd146102cf57806323b872dd146102fa578063313ce5671461038d57806339509351146103be5780633f4ba83a1461043157806340c10f191461044857806342966c68146104a35780634e71e0c8146104de5780635c975abb146104f5578063661884631461052457806370a08231146105975780637bb98a68146105fc5780638456cb591461065357806388fa26171461066a5780638da5cb5b1461069957806395d89b41146106f0578063a457c2d714610780578063a4b5fa56146107f3578063a69df4b51461084a578063a9059cbb14610861578063d73dd623146108d4578063dd62ed3e14610947578063e30c3978146109cc578063f2fde38b14610a23578063f83d08ba14610a74575b600080fd5b34801561017b57600080fd5b506101ca6004803603604081101561019257600080fd5b81019080803573ffffffffffffffffffffffffffffffffffffffff169060200190929190803515159060200190929190505050610a8b565b005b3480156101d857600080fd5b506101e1610bcc565b6040518080602001828103825283818151815260200191508051906020019080838360005b83811015610221578082015181840152602081019050610206565b50505050905090810190601f16801561024e5780820380516001836020036101000a031916815260200191505b509250505060405180910390f35b34801561026857600080fd5b506102b56004803603604081101561027f57600080fd5b81019080803573ffffffffffffffffffffffffffffffffffffffff16906020019092919080359060200190929190505050610c05565b604051808215151515815260200191505060405180910390f35b3480156102db57600080fd5b506102e46110e4565b6040518082815260200191505060405180910390f35b34801561030657600080fd5b506103736004803603606081101561031d57600080fd5b81019080803573ffffffffffffffffffffffffffffffffffffffff169060200190929190803573ffffffffffffffffffffffffffffffffffffffff169060200190929190803590602001909291905050506111aa565b604051808215151515815260200191505060405180910390f35b34801561039957600080fd5b506103a2611829565b604051808260ff1660ff16815260200191505060405180910390f35b3480156103ca57600080fd5b50610417600480360360408110156103e157600080fd5b81019080803573ffffffffffffffffffffffffffffffffffffffff1690602001909291908035906020019092919050505061182e565b604051808215151515815260200191505060405180910390f35b34801561043d57600080fd5b506104466118d3565b005b34801561045457600080fd5b506104a16004803603604081101561046b57600080fd5b81019080803573ffffffffffffffffffffffffffffffffffffffff16906020019092919080359060200190929190505050611993565b005b3480156104af57600080fd5b506104dc600480360360208110156104c657600080fd5b8101908080359060200190929190505050611bac565b005b3480156104ea57600080fd5b506104f3611d68565b005b34801561050157600080fd5b5061050a611f09565b604051808215151515815260200191505060405180910390f35b34801561053057600080fd5b5061057d6004803603604081101561054757600080fd5b81019080803573ffffffffffffffffffffffffffffffffffffffff16906020019092919080359060200190929190505050611f1c565b604051808215151515815260200191505060405180910390f35b3480156105a357600080fd5b506105e6600480360360208110156105ba57600080fd5b81019080803573ffffffffffffffffffffffffffffffffffffffff169060200190929190505050612275565b6040518082815260200191505060405180910390f35b34801561060857600080fd5b50610611612374565b604051808273ffffffffffffffffffffffffffffffffffffffff1673ffffffffffffffffffffffffffffffffffffffff16815260200191505060405180910390f35b34801561065f57600080fd5b5061066861239a565b005b34801561067657600080fd5b5061067f61245b565b604051808215151515815260200191505060405180910390f35b3480156106a557600080fd5b506106ae61246e565b604051808273ffffffffffffffffffffffffffffffffffffffff1673ffffffffffffffffffffffffffffffffffffffff16815260200191505060405180910390f35b3480156106fc57600080fd5b50610705612494565b6040518080602001828103825283818151815260200191508051906020019080838360005b8381101561074557808201518184015260208101905061072a565b50505050905090810190601f1680156107725780820380516001836020036101000a031916815260200191505b509250505060405180910390f35b34801561078c57600080fd5b506107d9600480360360408110156107a357600080fd5b81019080803573ffffffffffffffffffffffffffffffffffffffff169060200190929190803590602001909291905050506124cd565b604051808215151515815260200191505060405180910390f35b3480156107ff57600080fd5b50610808612572565b604051808273ffffffffffffffffffffffffffffffffffffffff1673ffffffffffffffffffffffffffffffffffffffff16815260200191505060405180910390f35b34801561085657600080fd5b5061085f612598565b005b34801561086d57600080fd5b506108ba6004803603604081101561088457600080fd5b81019080803573ffffffffffffffffffffffffffffffffffffffff1690602001909291908035906020019092919050505061263d565b604051808215151515815260200191505060405180910390f35b3480156108e057600080fd5b5061092d600480360360408110156108f757600080fd5b81019080803573ffffffffffffffffffffffffffffffffffffffff16906020019092919080359060200190929190505050612996565b604051808215151515815260200191505060405180910390f35b34801561095357600080fd5b506109b66004803603604081101561096a57600080fd5b81019080803573ffffffffffffffffffffffffffffffffffffffff169060200190929190803573ffffffffffffffffffffffffffffffffffffffff169060200190929190505050612cef565b6040518082815260200191505060405180910390f35b3480156109d857600080fd5b506109e1612e23565b604051808273ffffffffffffffffffffffffffffffffffffffff1673ffffffffffffffffffffffffffffffffffffffff16815260200191505060405180910390f35b348015610a2f57600080fd5b50610a7260048036036020811015610a4657600080fd5b81019080803573ffffffffffffffffffffffffffffffffffffffff169060200190929190505050612e49565b005b348015610a8057600080fd5b50610a89612f25565b005b600360009054906101000a900473ffffffffffffffffffffffffffffffffffffffff1673ffffffffffffffffffffffffffffffffffffffff163373ffffffffffffffffffffffffffffffffffffffff16141515610ae757600080fd5b600660009054906101000a900473ffffffffffffffffffffffffffffffffffffffff1673ffffffffffffffffffffffffffffffffffffffff166303d29d2883836040518363ffffffff167c0100000000000000000000000000000000000000000000000000000000028152600401808373ffffffffffffffffffffffffffffffffffffffff1673ffffffffffffffffffffffffffffffffffffffff1681526020018215151515815260200192505050600060405180830381600087803b158015610bb057600080fd5b505af1158015610bc4573d6000803e3d6000fd5b505050505050565b6040805190810160405280600481526020017f435553440000000000000000000000000000000000000000000000000000000081525081565b600082600660009054906101000a900473ffffffffffffffffffffffffffffffffffffffff1673ffffffffffffffffffffffffffffffffffffffff1663dbac26e9826040518263ffffffff167c0100000000000000000000000000000000000000000000000000000000028152600401808273ffffffffffffffffffffffffffffffffffffffff1673ffffffffffffffffffffffffffffffffffffffff16815260200191505060206040518083038186803b158015610cc357600080fd5b505afa158015610cd7573d6000803e3d6000fd5b505050506040513d6020811015610ced57600080fd5b8101908080519060200190929190505050151515610d99576040517f08c379a00000000000000000000000000000000000000000000000000000000081526004018080602001828103825260248152602001807f55736572277320617373657473206172652074656d706f726172696c7920667281526020017f6f7a656e0000000000000000000000000000000000000000000000000000000081525060400191505060405180910390fd5b33600660009054906101000a900473ffffffffffffffffffffffffffffffffffffffff1673ffffffffffffffffffffffffffffffffffffffff1663dbac26e9826040518263ffffffff167c0100000000000000000000000000000000000000000000000000000000028152600401808273ffffffffffffffffffffffffffffffffffffffff1673ffffffffffffffffffffffffffffffffffffffff16815260200191505060206040518083038186803b158015610e5557600080fd5b505afa158015610e69573d6000803e3d6000fd5b505050506040513d6020811015610e7f57600080fd5b8101908080519060200190929190505050151515610f2b576040517f08c379a00000000000000000000000000000000000000000000000000000000081526004018080602001828103825260248152602001807f55736572277320617373657473206172652074656d706f726172696c7920667281526020017f6f7a656e0000000000000000000000000000000000000000000000000000000081525060400191505060405180910390fd5b600460149054906101000a900460ff16151515610f4757600080fd5b600460159054906101000a900460ff161515610f6257600080fd5b600560009054906101000a900473ffffffffffffffffffffffffffffffffffffffff1673ffffffffffffffffffffffffffffffffffffffff1663da46098c3387876040518463ffffffff167c0100000000000000000000000000000000000000000000000000000000028152600401808473ffffffffffffffffffffffffffffffffffffffff1673ffffffffffffffffffffffffffffffffffffffff1681526020018373ffffffffffffffffffffffffffffffffffffffff1673ffffffffffffffffffffffffffffffffffffffff1681526020018281526020019350505050600060405180830381600087803b15801561105b57600080fd5b505af115801561106f573d6000803e3d6000fd5b505050508473ffffffffffffffffffffffffffffffffffffffff163373ffffffffffffffffffffffffffffffffffffffff167f8c5be1e5ebec7d5bd14f71427d1e84f3dd0314c0f7b2291e5b200ac8c7c3b925866040518082815260200191505060405180910390a360019250505092915050565b6000600560009054906101000a900473ffffffffffffffffffffffffffffffffffffffff1673ffffffffffffffffffffffffffffffffffffffff166318160ddd6040518163ffffffff167c010000000000000000000000000000000000000000000000000000000002815260040160206040518083038186803b15801561116a57600080fd5b505afa15801561117e573d6000803e3d6000fd5b505050506040513d602081101561119457600080fd5b8101908080519060200190929190505050905090565b600082600660009054906101000a900473ffffffffffffffffffffffffffffffffffffffff1673ffffffffffffffffffffffffffffffffffffffff1663dbac26e9826040518263ffffffff167c0100000000000000000000000000000000000000000000000000000000028152600401808273ffffffffffffffffffffffffffffffffffffffff1673ffffffffffffffffffffffffffffffffffffffff16815260200191505060206040518083038186803b15801561126857600080fd5b505afa15801561127c573d6000803e3d6000fd5b505050506040513d602081101561129257600080fd5b810190808051906020019092919050505015151561133e576040517f08c379a00000000000000000000000000000000000000000000000000000000081526004018080602001828103825260248152602001807f55736572277320617373657473206172652074656d706f726172696c7920667281526020017f6f7a656e0000000000000000000000000000000000000000000000000000000081525060400191505060405180910390fd5b84600660009054906101000a900473ffffffffffffffffffffffffffffffffffffffff1673ffffffffffffffffffffffffffffffffffffffff1663dbac26e9826040518263ffffffff167c0100000000000000000000000000000000000000000000000000000000028152600401808273ffffffffffffffffffffffffffffffffffffffff1673ffffffffffffffffffffffffffffffffffffffff16815260200191505060206040518083038186803b1580156113fa57600080fd5b505afa15801561140e573d6000803e3d6000fd5b505050506040513d602081101561142457600080fd5b81019080805190602001909291905050501515156114d0576040517f08c379a00000000000000000000000000000000000000000000000000000000081526004018080602001828103825260248152602001807f55736572277320617373657473206172652074656d706f726172696c7920667281526020017f6f7a656e0000000000000000000000000000000000000000000000000000000081525060400191505060405180910390fd5b33600660009054906101000a900473ffffffffffffffffffffffffffffffffffffffff1673ffffffffffffffffffffffffffffffffffffffff1663dbac26e9826040518263ffffffff167c0100000000000000000000000000000000000000000000000000000000028152600401808273ffffffffffffffffffffffffffffffffffffffff1673ffffffffffffffffffffffffffffffffffffffff16815260200191505060206040518083038186803b15801561158c57600080fd5b505afa1580156115a0573d6000803e3d6000fd5b505050506040513d60208110156115b657600080fd5b8101908080519060200190929190505050151515611662576040517f08c379a00000000000000000000000000000000000000000000000000000000081526004018080602001828103825260248152602001807f55736572277320617373657473206172652074656d706f726172696c7920667281526020017f6f7a656e0000000000000000000000000000000000000000000000000000000081525060400191505060405180910390fd5b600460149054906101000a900460ff1615151561167e57600080fd5b6116888733612cef565b85111515156116ff576040517f08c379a00000000000000000000000000000000000000000000000000000000081526004018080602001828103825260208152602001807f6e6f7420656e6f75676820616c6c6f77616e636520746f207472616e7366657281525060200191505060405180910390fd5b61170a868887612fca565b600560009054906101000a900473ffffffffffffffffffffffffffffffffffffffff1673ffffffffffffffffffffffffffffffffffffffff166397d88cd28833886040518463ffffffff167c0100000000000000000000000000000000000000000000000000000000028152600401808473ffffffffffffffffffffffffffffffffffffffff1673ffffffffffffffffffffffffffffffffffffffff1681526020018373ffffffffffffffffffffffffffffffffffffffff1673ffffffffffffffffffffffffffffffffffffffff1681526020018281526020019350505050600060405180830381600087803b15801561180357600080fd5b505af1158015611817573d6000803e3d6000fd5b50505050600193505050509392505050565b601281565b60006118c933846118c485600160003373ffffffffffffffffffffffffffffffffffffffff1673ffffffffffffffffffffffffffffffffffffffff16815260200190815260200160002060008973ffffffffffffffffffffffffffffffffffffffff1673ffffffffffffffffffffffffffffffffffffffff1681526020019081526020016000205461331390919063ffffffff16565b61339d565b6001905092915050565b600360009054906101000a900473ffffffffffffffffffffffffffffffffffffffff1673ffffffffffffffffffffffffffffffffffffffff163373ffffffffffffffffffffffffffffffffffffffff1614151561192f57600080fd5b600460149054906101000a900460ff16151561194a57600080fd5b6000600460146101000a81548160ff0219169083151502179055507f7805862f689e2f13df9f062ff482ad3ad112aca9e0847911ed832e158c525b3360405160405180910390a1565b81600660009054906101000a900473ffffffffffffffffffffffffffffffffffffffff1673ffffffffffffffffffffffffffffffffffffffff1663dbac26e9826040518263ffffffff167c0100000000000000000000000000000000000000000000000000000000028152600401808273ffffffffffffffffffffffffffffffffffffffff1673ffffffffffffffffffffffffffffffffffffffff16815260200191505060206040518083038186803b158015611a4f57600080fd5b505afa158015611a63573d6000803e3d6000fd5b505050506040513d6020811015611a7957600080fd5b8101908080519060200190929190505050151515611b25576040517f08c379a00000000000000000000000000000000000000000000000000000000081526004018080602001828103825260248152602001807f55736572277320617373657473206172652074656d706f726172696c7920667281526020017f6f7a656e0000000000000000000000000000000000000000000000000000000081525060400191505060405180910390fd5b600360009054906101000a900473ffffffffffffffffffffffffffffffffffffffff1673ffffffffffffffffffffffffffffffffffffffff163373ffffffffffffffffffffffffffffffffffffffff16141515611b8157600080fd5b600460149054906101000a900460ff16151515611b9d57600080fd5b611ba7838361361e565b505050565b33600660009054906101000a900473ffffffffffffffffffffffffffffffffffffffff1673ffffffffffffffffffffffffffffffffffffffff1663dbac26e9826040518263ffffffff167c0100000000000000000000000000000000000000000000000000000000028152600401808273ffffffffffffffffffffffffffffffffffffffff1673ffffffffffffffffffffffffffffffffffffffff16815260200191505060206040518083038186803b158015611c6857600080fd5b505afa158015611c7c573d6000803e3d6000fd5b505050506040513d6020811015611c9257600080fd5b8101908080519060200190929190505050151515611d3e576040517f08c379a00000000000000000000000000000000000000000000000000000000081526004018080602001828103825260248152602001807f55736572277320617373657473206172652074656d706f726172696c7920667281526020017f6f7a656e0000000000000000000000000000000000000000000000000000000081525060400191505060405180910390fd5b600460149054906101000a900460ff16151515611d5a57600080fd5b611d643383613901565b5050565b600460009054906101000a900473ffffffffffffffffffffffffffffffffffffffff1673ffffffffffffffffffffffffffffffffffffffff163373ffffffffffffffffffffffffffffffffffffffff16141515611dc457600080fd5b600460009054906101000a900473ffffffffffffffffffffffffffffffffffffffff1673ffffffffffffffffffffffffffffffffffffffff16600360009054906101000a900473ffffffffffffffffffffffffffffffffffffffff1673ffffffffffffffffffffffffffffffffffffffff167f8be0079c531659141344cd1fd0a4f28419497f9722a3daafe3b4186f6b6457e060405160405180910390a3600460009054906101000a900473ffffffffffffffffffffffffffffffffffffffff16600360006101000a81548173ffffffffffffffffffffffffffffffffffffffff021916908373ffffffffffffffffffffffffffffffffffffffff1602179055506000600460006101000a81548173ffffffffffffffffffffffffffffffffffffffff021916908373ffffffffffffffffffffffffffffffffffffffff160217905550565b600460149054906101000a900460ff1681565b600082600660009054906101000a900473ffffffffffffffffffffffffffffffffffffffff1673ffffffffffffffffffffffffffffffffffffffff1663dbac26e9826040518263ffffffff167c0100000000000000000000000000000000000000000000000000000000028152600401808273ffffffffffffffffffffffffffffffffffffffff1673ffffffffffffffffffffffffffffffffffffffff16815260200191505060206040518083038186803b158015611fda57600080fd5b505afa158015611fee573d6000803e3d6000fd5b505050506040513d602081101561200457600080fd5b81019080805190602001909291905050501515156120b0576040517f08c379a00000000000000000000000000000000000000000000000000000000081526004018080602001828103825260248152602001807f55736572277320617373657473206172652074656d706f726172696c7920667281526020017f6f7a656e0000000000000000000000000000000000000000000000000000000081525060400191505060405180910390fd5b33600660009054906101000a900473ffffffffffffffffffffffffffffffffffffffff1673ffffffffffffffffffffffffffffffffffffffff1663dbac26e9826040518263ffffffff167c0100000000000000000000000000000000000000000000000000000000028152600401808273ffffffffffffffffffffffffffffffffffffffff1673ffffffffffffffffffffffffffffffffffffffff16815260200191505060206040518083038186803b15801561216c57600080fd5b505afa158015612180573d6000803e3d6000fd5b505050506040513d602081101561219657600080fd5b8101908080519060200190929190505050151515612242576040517f08c379a00000000000000000000000000000000000000000000000000000000081526004018080602001828103825260248152602001807f55736572277320617373657473206172652074656d706f726172696c7920667281526020017f6f7a656e0000000000000000000000000000000000000000000000000000000081525060400191505060405180910390fd5b600460149054906101000a900460ff1615151561225e57600080fd5b612269858533613c64565b60019250505092915050565b6000600560009054906101000a900473ffffffffffffffffffffffffffffffffffffffff1673ffffffffffffffffffffffffffffffffffffffff166327e235e3836040518263ffffffff167c0100000000000000000000000000000000000000000000000000000000028152600401808273ffffffffffffffffffffffffffffffffffffffff1673ffffffffffffffffffffffffffffffffffffffff16815260200191505060206040518083038186803b15801561233257600080fd5b505afa158015612346573d6000803e3d6000fd5b505050506040513d602081101561235c57600080fd5b81019080805190602001909291905050509050919050565b600560009054906101000a900473ffffffffffffffffffffffffffffffffffffffff1681565b600360009054906101000a900473ffffffffffffffffffffffffffffffffffffffff1673ffffffffffffffffffffffffffffffffffffffff163373ffffffffffffffffffffffffffffffffffffffff161415156123f657600080fd5b600460149054906101000a900460ff1615151561241257600080fd5b6001600460146101000a81548160ff0219169083151502179055507f6985a02210a168e66602d3235cb6db0e70f92b3ba4d376a33c0f3d9434bff62560405160405180910390a1565b600460159054906101000a900460ff1681565b600360009054906101000a900473ffffffffffffffffffffffffffffffffffffffff1681565b6040805190810160405280600481526020017f435553440000000000000000000000000000000000000000000000000000000081525081565b6000612568338461256385600160003373ffffffffffffffffffffffffffffffffffffffff1673ffffffffffffffffffffffffffffffffffffffff16815260200190815260200160002060008973ffffffffffffffffffffffffffffffffffffffff1673ffffffffffffffffffffffffffffffffffffffff16815260200190815260200160002054613f1790919063ffffffff16565b61339d565b6001905092915050565b600660009054906101000a900473ffffffffffffffffffffffffffffffffffffffff1681565b600360009054906101000a900473ffffffffffffffffffffffffffffffffffffffff1673ffffffffffffffffffffffffffffffffffffffff163373ffffffffffffffffffffffffffffffffffffffff161415156125f457600080fd5b6001600460156101000a81548160ff0219169083151502179055507f19aad37188a1d3921e29eb3c66acf43d81975e107cb650d58cca878627955fd660405160405180910390a1565b600082600660009054906101000a900473ffffffffffffffffffffffffffffffffffffffff1673ffffffffffffffffffffffffffffffffffffffff1663dbac26e9826040518263ffffffff167c0100000000000000000000000000000000000000000000000000000000028152600401808273ffffffffffffffffffffffffffffffffffffffff1673ffffffffffffffffffffffffffffffffffffffff16815260200191505060206040518083038186803b1580156126fb57600080fd5b505afa15801561270f573d6000803e3d6000fd5b505050506040513d602081101561272557600080fd5b81019080805190602001909291905050501515156127d1576040517f08c379a00000000000000000000000000000000000000000000000000000000081526004018080602001828103825260248152602001807f55736572277320617373657473206172652074656d706f726172696c7920667281526020017f6f7a656e0000000000000000000000000000000000000000000000000000000081525060400191505060405180910390fd5b33600660009054906101000a900473ffffffffffffffffffffffffffffffffffffffff1673ffffffffffffffffffffffffffffffffffffffff1663dbac26e9826040518263ffffffff167c0100000000000000000000000000000000000000000000000000000000028152600401808273ffffffffffffffffffffffffffffffffffffffff1673ffffffffffffffffffffffffffffffffffffffff16815260200191505060206040518083038186803b15801561288d57600080fd5b505afa1580156128a1573d6000803e3d6000fd5b505050506040513d60208110156128b757600080fd5b8101908080519060200190929190505050151515612963576040517f08c379a00000000000000000000000000000000000000000000000000000000081526004018080602001828103825260248152602001807f55736572277320617373657473206172652074656d706f726172696c7920667281526020017f6f7a656e0000000000000000000000000000000000000000000000000000000081525060400191505060405180910390fd5b600460149054906101000a900460ff1615151561297f57600080fd5b61298a853386612fca565b60019250505092915050565b600082600660009054906101000a900473ffffffffffffffffffffffffffffffffffffffff1673ffffffffffffffffffffffffffffffffffffffff1663dbac26e9826040518263ffffffff167c0100000000000000000000000000000000000000000000000000000000028152600401808273ffffffffffffffffffffffffffffffffffffffff1673ffffffffffffffffffffffffffffffffffffffff16815260200191505060206040518083038186803b158015612a5457600080fd5b505afa158015612a68573d6000803e3d6000fd5b505050506040513d6020811015612a7e57600080fd5b8101908080519060200190929190505050151515612b2a576040517f08c379a00000000000000000000000000000000000000000000000000000000081526004018080602001828103825260248152602001807f55736572277320617373657473206172652074656d706f726172696c7920667281526020017f6f7a656e0000000000000000000000000000000000000000000000000000000081525060400191505060405180910390fd5b33600660009054906101000a900473ffffffffffffffffffffffffffffffffffffffff1673ffffffffffffffffffffffffffffffffffffffff1663dbac26e9826040518263ffffffff167c0100000000000000000000000000000000000000000000000000000000028152600401808273ffffffffffffffffffffffffffffffffffffffff1673ffffffffffffffffffffffffffffffffffffffff16815260200191505060206040518083038186803b158015612be657600080fd5b505afa158015612bfa573d6000803e3d6000fd5b505050506040513d6020811015612c1057600080fd5b8101908080519060200190929190505050151515612cbc576040517f08c379a00000000000000000000000000000000000000000000000000000000081526004018080602001828103825260248152602001807f55736572277320617373657473206172652074656d706f726172696c7920667281526020017f6f7a656e0000000000000000000000000000000000000000000000000000000081525060400191505060405180910390fd5b600460149054906101000a900460ff16151515612cd857600080fd5b612ce3858533613fa2565b60019250505092915050565b6000600560009054906101000a900473ffffffffffffffffffffffffffffffffffffffff1673ffffffffffffffffffffffffffffffffffffffff166355b6ed5c84846040518363ffffffff167c0100000000000000000000000000000000000000000000000000000000028152600401808373ffffffffffffffffffffffffffffffffffffffff1673ffffffffffffffffffffffffffffffffffffffff1681526020018273ffffffffffffffffffffffffffffffffffffffff1673ffffffffffffffffffffffffffffffffffffffff1681526020019250505060206040518083038186803b158015612de057600080fd5b505afa158015612df4573d6000803e3d6000fd5b505050506040513d6020811015612e0a57600080fd5b8101908080519060200190929190505050905092915050565b600460009054906101000a900473ffffffffffffffffffffffffffffffffffffffff1681565b600360009054906101000a900473ffffffffffffffffffffffffffffffffffffffff1673ffffffffffffffffffffffffffffffffffffffff163373ffffffffffffffffffffffffffffffffffffffff16141515612ea557600080fd5b600073ffffffffffffffffffffffffffffffffffffffff168173ffffffffffffffffffffffffffffffffffffffff1614151515612ee157600080fd5b80600460006101000a81548173ffffffffffffffffffffffffffffffffffffffff021916908373ffffffffffffffffffffffffffffffffffffffff16021790555050565b600360009054906101000a900473ffffffffffffffffffffffffffffffffffffffff1673ffffffffffffffffffffffffffffffffffffffff163373ffffffffffffffffffffffffffffffffffffffff16141515612f8157600080fd5b6000600460156101000a81548160ff0219169083151502179055507f0f2e5b6c72c6a4491efd919a9f9a409f324ef0708c11ee57d410c2cb06c0992b60405160405180910390a1565b600073ffffffffffffffffffffffffffffffffffffffff168373ffffffffffffffffffffffffffffffffffffffff161415151561306f576040517f08c379a00000000000000000000000000000000000000000000000000000000081526004018080602001828103825260188152602001807f746f20616464726573732063616e6e6f7420626520307830000000000000000081525060200191505060405180910390fd5b61307882612275565b81111515156130ef576040517f08c379a000000000000000000000000000000000000000000000000000000000815260040180806020018281038252601e8152602001807f6e6f7420656e6f7567682062616c616e636520746f207472616e73666572000081525060200191505060405180910390fd5b600560009054906101000a900473ffffffffffffffffffffffffffffffffffffffff1673ffffffffffffffffffffffffffffffffffffffff166321e5383a84836040518363ffffffff167c0100000000000000000000000000000000000000000000000000000000028152600401808373ffffffffffffffffffffffffffffffffffffffff1673ffffffffffffffffffffffffffffffffffffffff16815260200182815260200192505050600060405180830381600087803b1580156131b457600080fd5b505af11580156131c8573d6000803e3d6000fd5b50505050600560009054906101000a900473ffffffffffffffffffffffffffffffffffffffff1673ffffffffffffffffffffffffffffffffffffffff1663cf8eeb7e83836040518363ffffffff167c0100000000000000000000000000000000000000000000000000000000028152600401808373ffffffffffffffffffffffffffffffffffffffff1673ffffffffffffffffffffffffffffffffffffffff16815260200182815260200192505050600060405180830381600087803b15801561329157600080fd5b505af11580156132a5573d6000803e3d6000fd5b505050508273ffffffffffffffffffffffffffffffffffffffff168273ffffffffffffffffffffffffffffffffffffffff167fddf252ad1be2c89b69c2b068fc378daa952ba7f163c4a11628f55a4df523b3ef836040518082815260200191505060405180910390a3505050565b6000808284019050838110151515613393576040517f08c379a000000000000000000000000000000000000000000000000000000000815260040180806020018281038252601b8152602001807f536166654d6174683a206164646974696f6e206f766572666c6f77000000000081525060200191505060405180910390fd5b8091505092915050565b600073ffffffffffffffffffffffffffffffffffffffff168373ffffffffffffffffffffffffffffffffffffffff1614151515613468576040517f08c379a00000000000000000000000000000000000000000000000000000000081526004018080602001828103825260248152602001807f45524332303a20617070726f76652066726f6d20746865207a65726f2061646481526020017f726573730000000000000000000000000000000000000000000000000000000081525060400191505060405180910390fd5b600073ffffffffffffffffffffffffffffffffffffffff168273ffffffffffffffffffffffffffffffffffffffff1614151515613533576040517f08c379a00000000000000000000000000000000000000000000000000000000081526004018080602001828103825260228152602001807f45524332303a20617070726f766520746f20746865207a65726f20616464726581526020017f737300000000000000000000000000000000000000000000000000000000000081525060400191505060405180910390fd5b80600160008573ffffffffffffffffffffffffffffffffffffffff1673ffffffffffffffffffffffffffffffffffffffff16815260200190815260200160002060008473ffffffffffffffffffffffffffffffffffffffff1673ffffffffffffffffffffffffffffffffffffffff168152602001908152602001600020819055508173ffffffffffffffffffffffffffffffffffffffff168373ffffffffffffffffffffffffffffffffffffffff167f8c5be1e5ebec7d5bd14f71427d1e84f3dd0314c0f7b2291e5b200ac8c7c3b925836040518082815260200191505060405180910390a3505050565b600073ffffffffffffffffffffffffffffffffffffffff168273ffffffffffffffffffffffffffffffffffffffff16141515156136c3576040517f08c379a00000000000000000000000000000000000000000000000000000000081526004018080602001828103825260188152602001807f746f20616464726573732063616e6e6f7420626520307830000000000000000081525060200191505060405180910390fd5b600560009054906101000a900473ffffffffffffffffffffffffffffffffffffffff1673ffffffffffffffffffffffffffffffffffffffff1663e468688e826040518263ffffffff167c010000000000000000000000000000000000000000000000000000000002815260040180828152602001915050600060405180830381600087803b15801561375457600080fd5b505af1158015613768573d6000803e3d6000fd5b50505050600560009054906101000a900473ffffffffffffffffffffffffffffffffffffffff1673ffffffffffffffffffffffffffffffffffffffff166321e5383a83836040518363ffffffff167c0100000000000000000000000000000000000000000000000000000000028152600401808373ffffffffffffffffffffffffffffffffffffffff1673ffffffffffffffffffffffffffffffffffffffff16815260200182815260200192505050600060405180830381600087803b15801561383157600080fd5b505af1158015613845573d6000803e3d6000fd5b505050508173ffffffffffffffffffffffffffffffffffffffff167f0f6798a560793a54c3bcfe86a93cde1e73087d944c0ea20544137d4121396885826040518082815260200191505060405180910390a28173ffffffffffffffffffffffffffffffffffffffff16600073ffffffffffffffffffffffffffffffffffffffff167fddf252ad1be2c89b69c2b068fc378daa952ba7f163c4a11628f55a4df523b3ef836040518082815260200191505060405180910390a35050565b600073ffffffffffffffffffffffffffffffffffffffff168273ffffffffffffffffffffffffffffffffffffffff16141515156139a6576040517f08c379a000000000000000000000000000000000000000000000000000000000815260040180806020018281038252601c8152602001807f6275726e657220616464726573732063616e6e6f74206265203078300000000081525060200191505060405180910390fd5b6139af82612275565b8111151515613a26576040517f08c379a000000000000000000000000000000000000000000000000000000000815260040180806020018281038252601a8152602001807f6e6f7420656e6f7567682062616c616e636520746f206275726e00000000000081525060200191505060405180910390fd5b600560009054906101000a900473ffffffffffffffffffffffffffffffffffffffff1673ffffffffffffffffffffffffffffffffffffffff1663cf8eeb7e83836040518363ffffffff167c0100000000000000000000000000000000000000000000000000000000028152600401808373ffffffffffffffffffffffffffffffffffffffff1673ffffffffffffffffffffffffffffffffffffffff16815260200182815260200192505050600060405180830381600087803b158015613aeb57600080fd5b505af1158015613aff573d6000803e3d6000fd5b50505050600560009054906101000a900473ffffffffffffffffffffffffffffffffffffffff1673ffffffffffffffffffffffffffffffffffffffff166382838c76826040518263ffffffff167c010000000000000000000000000000000000000000000000000000000002815260040180828152602001915050600060405180830381600087803b158015613b9457600080fd5b505af1158015613ba8573d6000803e3d6000fd5b505050508173ffffffffffffffffffffffffffffffffffffffff167fcc16f5dbb4873280815c1ee09dbd06736cffcc184412cf7a71a0fdb75d397ca5826040518082815260200191505060405180910390a2600073ffffffffffffffffffffffffffffffffffffffff168273ffffffffffffffffffffffffffffffffffffffff167fddf252ad1be2c89b69c2b068fc378daa952ba7f163c4a11628f55a4df523b3ef836040518082815260200191505060405180910390a35050565b6000613c708285612cef565b905080831115613d9157600560009054906101000a900473ffffffffffffffffffffffffffffffffffffffff1673ffffffffffffffffffffffffffffffffffffffff1663da46098c838660006040518463ffffffff167c0100000000000000000000000000000000000000000000000000000000028152600401808473ffffffffffffffffffffffffffffffffffffffff1673ffffffffffffffffffffffffffffffffffffffff1681526020018373ffffffffffffffffffffffffffffffffffffffff1673ffffffffffffffffffffffffffffffffffffffff1681526020018281526020019350505050600060405180830381600087803b158015613d7457600080fd5b505af1158015613d88573d6000803e3d6000fd5b50505050613ea3565b600560009054906101000a900473ffffffffffffffffffffffffffffffffffffffff1673ffffffffffffffffffffffffffffffffffffffff166397d88cd28386866040518463ffffffff167c0100000000000000000000000000000000000000000000000000000000028152600401808473ffffffffffffffffffffffffffffffffffffffff1673ffffffffffffffffffffffffffffffffffffffff1681526020018373ffffffffffffffffffffffffffffffffffffffff1673ffffffffffffffffffffffffffffffffffffffff1681526020018281526020019350505050600060405180830381600087803b158015613e8a57600080fd5b505af1158015613e9e573d6000803e3d6000fd5b505050505b8373ffffffffffffffffffffffffffffffffffffffff168273ffffffffffffffffffffffffffffffffffffffff167f8c5be1e5ebec7d5bd14f71427d1e84f3dd0314c0f7b2291e5b200ac8c7c3b925613efc8588612cef565b6040518082815260200191505060405180910390a350505050565b6000828211151515613f91576040517f08c379a000000000000000000000000000000000000000000000000000000000815260040180806020018281038252601e8152602001807f536166654d6174683a207375627472616374696f6e206f766572666c6f77000081525060200191505060405180910390fd5b600082840390508091505092915050565b600560009054906101000a900473ffffffffffffffffffffffffffffffffffffffff1673ffffffffffffffffffffffffffffffffffffffff16635fd72d168285856040518463ffffffff167c0100000000000000000000000000000000000000000000000000000000028152600401808473ffffffffffffffffffffffffffffffffffffffff1673ffffffffffffffffffffffffffffffffffffffff1681526020018373ffffffffffffffffffffffffffffffffffffffff1673ffffffffffffffffffffffffffffffffffffffff1681526020018281526020019350505050600060405180830381600087803b15801561409b57600080fd5b505af11580156140af573d6000803e3d6000fd5b505050508273ffffffffffffffffffffffffffffffffffffffff168173ffffffffffffffffffffffffffffffffffffffff167f8c5be1e5ebec7d5bd14f71427d1e84f3dd0314c0f7b2291e5b200ac8c7c3b92561410c8487612cef565b6040518082815260200191505060405180910390a350505056fea165627a7a72305820e4f83bdb28f4525722d3539617479ab45615933aa281f1709b316d799fc3814400296080604052336000806101000a81548173ffffffffffffffffffffffffffffffffffffffff021916908373ffffffffffffffffffffffffffffffffffffffff1602179055506000600160006101000a81548173ffffffffffffffffffffffffffffffffffffffff021916908373ffffffffffffffffffffffffffffffffffffffff160217905550611233806100956000396000f3fe6080604052600436106100e6576000357c0100000000000000000000000000000000000000000000000000000000900463ffffffff16806318160ddd146100eb57806321e5383a1461011657806327e235e3146101715780634e71e0c8146101d657806355b6ed5c146101ed5780635fd72d161461027257806382838c76146102ed5780638da5cb5b1461032857806397d88cd21461037f578063cf8eeb7e146103fa578063da46098c14610455578063e30443bc146104d0578063e30c39781461052b578063e468688e14610582578063f2fde38b146105bd578063f7ea7a3d1461060e575b600080fd5b3480156100f757600080fd5b50610100610649565b6040518082815260200191505060405180910390f35b34801561012257600080fd5b5061016f6004803603604081101561013957600080fd5b81019080803573ffffffffffffffffffffffffffffffffffffffff1690602001909291908035906020019092919050505061064f565b005b34801561017d57600080fd5b506101c06004803603602081101561019457600080fd5b81019080803573ffffffffffffffffffffffffffffffffffffffff169060200190929190505050610743565b6040518082815260200191505060405180910390f35b3480156101e257600080fd5b506101eb61075b565b005b3480156101f957600080fd5b5061025c6004803603604081101561021057600080fd5b81019080803573ffffffffffffffffffffffffffffffffffffffff169060200190929190803573ffffffffffffffffffffffffffffffffffffffff1690602001909291905050506108fa565b6040518082815260200191505060405180910390f35b34801561027e57600080fd5b506102eb6004803603606081101561029557600080fd5b81019080803573ffffffffffffffffffffffffffffffffffffffff169060200190929190803573ffffffffffffffffffffffffffffffffffffffff1690602001909291908035906020019092919050505061091f565b005b3480156102f957600080fd5b506103266004803603602081101561031057600080fd5b8101908080359060200190929190505050610a8e565b005b34801561033457600080fd5b5061033d610b07565b604051808273ffffffffffffffffffffffffffffffffffffffff1673ffffffffffffffffffffffffffffffffffffffff16815260200191505060405180910390f35b34801561038b57600080fd5b506103f8600480360360608110156103a257600080fd5b81019080803573ffffffffffffffffffffffffffffffffffffffff169060200190929190803573ffffffffffffffffffffffffffffffffffffffff16906020019092919080359060200190929190505050610b2c565b005b34801561040657600080fd5b506104536004803603604081101561041d57600080fd5b81019080803573ffffffffffffffffffffffffffffffffffffffff16906020019092919080359060200190929190505050610c9b565b005b34801561046157600080fd5b506104ce6004803603606081101561047857600080fd5b81019080803573ffffffffffffffffffffffffffffffffffffffff169060200190929190803573ffffffffffffffffffffffffffffffffffffffff16906020019092919080359060200190929190505050610d8f565b005b3480156104dc57600080fd5b50610529600480360360408110156104f357600080fd5b81019080803573ffffffffffffffffffffffffffffffffffffffff16906020019092919080359060200190929190505050610e70565b005b34801561053757600080fd5b50610540610f13565b604051808273ffffffffffffffffffffffffffffffffffffffff1673ffffffffffffffffffffffffffffffffffffffff16815260200191505060405180910390f35b34801561058e57600080fd5b506105bb600480360360208110156105a557600080fd5b8101908080359060200190929190505050610f39565b005b3480156105c957600080fd5b5061060c600480360360208110156105e057600080fd5b81019080803573ffffffffffffffffffffffffffffffffffffffff169060200190929190505050610fb2565b005b34801561061a57600080fd5b506106476004803603602081101561063157600080fd5b810190808035906020019092919050505061108d565b005b60045481565b6000809054906101000a900473ffffffffffffffffffffffffffffffffffffffff1673ffffffffffffffffffffffffffffffffffffffff163373ffffffffffffffffffffffffffffffffffffffff161415156106aa57600080fd5b6106fc81600360008573ffffffffffffffffffffffffffffffffffffffff1673ffffffffffffffffffffffffffffffffffffffff168152602001908152602001600020546110f290919063ffffffff16565b600360008473ffffffffffffffffffffffffffffffffffffffff1673ffffffffffffffffffffffffffffffffffffffff168152602001908152602001600020819055505050565b60036020528060005260406000206000915090505481565b600160009054906101000a900473ffffffffffffffffffffffffffffffffffffffff1673ffffffffffffffffffffffffffffffffffffffff163373ffffffffffffffffffffffffffffffffffffffff161415156107b757600080fd5b600160009054906101000a900473ffffffffffffffffffffffffffffffffffffffff1673ffffffffffffffffffffffffffffffffffffffff166000809054906101000a900473ffffffffffffffffffffffffffffffffffffffff1673ffffffffffffffffffffffffffffffffffffffff167f8be0079c531659141344cd1fd0a4f28419497f9722a3daafe3b4186f6b6457e060405160405180910390a3600160009054906101000a900473ffffffffffffffffffffffffffffffffffffffff166000806101000a81548173ffffffffffffffffffffffffffffffffffffffff021916908373ffffffffffffffffffffffffffffffffffffffff1602179055506000600160006101000a81548173ffffffffffffffffffffffffffffffffffffffff021916908373ffffffffffffffffffffffffffffffffffffffff160217905550565b6002602052816000526040600020602052806000526040600020600091509150505481565b6000809054906101000a900473ffffffffffffffffffffffffffffffffffffffff1673ffffffffffffffffffffffffffffffffffffffff163373ffffffffffffffffffffffffffffffffffffffff1614151561097a57600080fd5b610a0981600260008673ffffffffffffffffffffffffffffffffffffffff1673ffffffffffffffffffffffffffffffffffffffff16815260200190815260200160002060008573ffffffffffffffffffffffffffffffffffffffff1673ffffffffffffffffffffffffffffffffffffffff168152602001908152602001600020546110f290919063ffffffff16565b600260008573ffffffffffffffffffffffffffffffffffffffff1673ffffffffffffffffffffffffffffffffffffffff16815260200190815260200160002060008473ffffffffffffffffffffffffffffffffffffffff1673ffffffffffffffffffffffffffffffffffffffff16815260200190815260200160002081905550505050565b6000809054906101000a900473ffffffffffffffffffffffffffffffffffffffff1673ffffffffffffffffffffffffffffffffffffffff163373ffffffffffffffffffffffffffffffffffffffff16141515610ae957600080fd5b610afe8160045461117c90919063ffffffff16565b60048190555050565b6000809054906101000a900473ffffffffffffffffffffffffffffffffffffffff1681565b6000809054906101000a900473ffffffffffffffffffffffffffffffffffffffff1673ffffffffffffffffffffffffffffffffffffffff163373ffffffffffffffffffffffffffffffffffffffff16141515610b8757600080fd5b610c1681600260008673ffffffffffffffffffffffffffffffffffffffff1673ffffffffffffffffffffffffffffffffffffffff16815260200190815260200160002060008573ffffffffffffffffffffffffffffffffffffffff1673ffffffffffffffffffffffffffffffffffffffff1681526020019081526020016000205461117c90919063ffffffff16565b600260008573ffffffffffffffffffffffffffffffffffffffff1673ffffffffffffffffffffffffffffffffffffffff16815260200190815260200160002060008473ffffffffffffffffffffffffffffffffffffffff1673ffffffffffffffffffffffffffffffffffffffff16815260200190815260200160002081905550505050565b6000809054906101000a900473ffffffffffffffffffffffffffffffffffffffff1673ffffffffffffffffffffffffffffffffffffffff163373ffffffffffffffffffffffffffffffffffffffff16141515610cf657600080fd5b610d4881600360008573ffffffffffffffffffffffffffffffffffffffff1673ffffffffffffffffffffffffffffffffffffffff1681526020019081526020016000205461117c90919063ffffffff16565b600360008473ffffffffffffffffffffffffffffffffffffffff1673ffffffffffffffffffffffffffffffffffffffff168152602001908152602001600020819055505050565b6000809054906101000a900473ffffffffffffffffffffffffffffffffffffffff1673ffffffffffffffffffffffffffffffffffffffff163373ffffffffffffffffffffffffffffffffffffffff16141515610dea57600080fd5b80600260008573ffffffffffffffffffffffffffffffffffffffff1673ffffffffffffffffffffffffffffffffffffffff16815260200190815260200160002060008473ffffffffffffffffffffffffffffffffffffffff1673ffffffffffffffffffffffffffffffffffffffff16815260200190815260200160002081905550505050565b6000809054906101000a900473ffffffffffffffffffffffffffffffffffffffff1673ffffffffffffffffffffffffffffffffffffffff163373ffffffffffffffffffffffffffffffffffffffff16141515610ecb57600080fd5b80600360008473ffffffffffffffffffffffffffffffffffffffff1673ffffffffffffffffffffffffffffffffffffffff168152602001908152602001600020819055505050565b600160009054906101000a900473ffffffffffffffffffffffffffffffffffffffff1681565b6000809054906101000a900473ffffffffffffffffffffffffffffffffffffffff1673ffffffffffffffffffffffffffffffffffffffff163373ffffffffffffffffffffffffffffffffffffffff16141515610f9457600080fd5b610fa9816004546110f290919063ffffffff16565b60048190555050565b6000809054906101000a900473ffffffffffffffffffffffffffffffffffffffff1673ffffffffffffffffffffffffffffffffffffffff163373ffffffffffffffffffffffffffffffffffffffff1614151561100d57600080fd5b600073ffffffffffffffffffffffffffffffffffffffff168173ffffffffffffffffffffffffffffffffffffffff161415151561104957600080fd5b80600160006101000a81548173ffffffffffffffffffffffffffffffffffffffff021916908373ffffffffffffffffffffffffffffffffffffffff16021790555050565b6000809054906101000a900473ffffffffffffffffffffffffffffffffffffffff1673ffffffffffffffffffffffffffffffffffffffff163373ffffffffffffffffffffffffffffffffffffffff161415156110e857600080fd5b8060048190555050565b6000808284019050838110151515611172576040517f08c379a000000000000000000000000000000000000000000000000000000000815260040180806020018281038252601b8152602001807f536166654d6174683a206164646974696f6e206f766572666c6f77000000000081525060200191505060405180910390fd5b8091505092915050565b60008282111515156111f6576040517f08c379a000000000000000000000000000000000000000000000000000000000815260040180806020018281038252601e8152602001807f536166654d6174683a207375627472616374696f6e206f766572666c6f77000081525060200191505060405180910390fd5b60008284039050809150509291505056fea165627a7a723058205f9602e5cf9ebf7afa335f59ae6f80aa39500b229979a73f51168993829a119300296080604052336000806101000a81548173ffffffffffffffffffffffffffffffffffffffff021916908373ffffffffffffffffffffffffffffffffffffffff1602179055506000600160006101000a81548173ffffffffffffffffffffffffffffffffffffffff021916908373ffffffffffffffffffffffffffffffffffffffff160217905550610672806100956000396000f3fe608060405260043610610078576000357c0100000000000000000000000000000000000000000000000000000000900463ffffffff16806303d29d281461007d5780634e71e0c8146100da5780638da5cb5b146100f1578063dbac26e914610148578063e30c3978146101b1578063f2fde38b14610208575b600080fd5b34801561008957600080fd5b506100d8600480360360408110156100a057600080fd5b81019080803573ffffffffffffffffffffffffffffffffffffffff169060200190929190803515159060200190929190505050610259565b005b3480156100e657600080fd5b506100ef610361565b005b3480156100fd57600080fd5b50610106610500565b604051808273ffffffffffffffffffffffffffffffffffffffff1673ffffffffffffffffffffffffffffffffffffffff16815260200191505060405180910390f35b34801561015457600080fd5b506101976004803603602081101561016b57600080fd5b81019080803573ffffffffffffffffffffffffffffffffffffffff169060200190929190505050610525565b604051808215151515815260200191505060405180910390f35b3480156101bd57600080fd5b506101c6610545565b604051808273ffffffffffffffffffffffffffffffffffffffff1673ffffffffffffffffffffffffffffffffffffffff16815260200191505060405180910390f35b34801561021457600080fd5b506102576004803603602081101561022b57600080fd5b81019080803573ffffffffffffffffffffffffffffffffffffffff16906020019092919050505061056b565b005b6000809054906101000a900473ffffffffffffffffffffffffffffffffffffffff1673ffffffffffffffffffffffffffffffffffffffff163373ffffffffffffffffffffffffffffffffffffffff161415156102b457600080fd5b80600260008473ffffffffffffffffffffffffffffffffffffffff1673ffffffffffffffffffffffffffffffffffffffff16815260200190815260200160002060006101000a81548160ff0219169083151502179055508173ffffffffffffffffffffffffffffffffffffffff167f5019745a56bcdd97726f5b35a7bfcb97ffa4e40b51bc2f6f764c6671e1bef6d482604051808215151515815260200191505060405180910390a25050565b600160009054906101000a900473ffffffffffffffffffffffffffffffffffffffff1673ffffffffffffffffffffffffffffffffffffffff163373ffffffffffffffffffffffffffffffffffffffff161415156103bd57600080fd5b600160009054906101000a900473ffffffffffffffffffffffffffffffffffffffff1673ffffffffffffffffffffffffffffffffffffffff166000809054906101000a900473ffffffffffffffffffffffffffffffffffffffff1673ffffffffffffffffffffffffffffffffffffffff167f8be0079c531659141344cd1fd0a4f28419497f9722a3daafe3b4186f6b6457e060405160405180910390a3600160009054906101000a900473ffffffffffffffffffffffffffffffffffffffff166000806101000a81548173ffffffffffffffffffffffffffffffffffffffff021916908373ffffffffffffffffffffffffffffffffffffffff1602179055506000600160006101000a81548173ffffffffffffffffffffffffffffffffffffffff021916908373ffffffffffffffffffffffffffffffffffffffff160217905550565b6000809054906101000a900473ffffffffffffffffffffffffffffffffffffffff1681565b60026020528060005260406000206000915054906101000a900460ff1681565b600160009054906101000a900473ffffffffffffffffffffffffffffffffffffffff1681565b6000809054906101000a900473ffffffffffffffffffffffffffffffffffffffff1673ffffffffffffffffffffffffffffffffffffffff163373ffffffffffffffffffffffffffffffffffffffff161415156105c657600080fd5b600073ffffffffffffffffffffffffffffffffffffffff168173ffffffffffffffffffffffffffffffffffffffff161415151561060257600080fd5b80600160006101000a81548173ffffffffffffffffffffffffffffffffffffffff021916908373ffffffffffffffffffffffffffffffffffffffff1602179055505056fea165627a7a72305820470edeb690233d027b27a863283326feb7116c5eb64705e6a204d8af1af1c8220029",
    "source": "pragma solidity >=0.4.24;\n\nimport \"./dataStorage/Balances.sol\";\nimport \"./dataStorage/Blacklist.sol\";\nimport \"openzeppelin-solidity/contracts/math/SafeMath.sol\";\nimport \"openzeppelin-solidity/contracts/token/ERC20/ERC20.sol\";\nimport \"../helpers/Lockable.sol\";\nimport \"../helpers/Pausable.sol\";\n\n/**\n* @title Carbon Dollar\n* @notice A simple mintable and burnable erc20\n*/\ncontract CarbonDollar is ERC20, Pausable, Lockable {\n    using SafeMath for uint256;\n\n    /** Events */\n    event Mint(address indexed to, uint256 value);\n    event Burn(address indexed burner, uint256 value);\n    event Transfer(address indexed from, address indexed to, uint256 value);\n    event Approval(address indexed owner, address indexed spender, uint256 value);\n\n    Balances public balances;\n    Blacklist public blacklist;\n\n    /**\n    * @dev create a new CarbonDollar with new storage contracts\n    **/\n    constructor () public {\n        balances = new Balances();\n        blacklist = new Blacklist();\n    }\n\n    /** \n        ERC20 Metadata\n    */\n    string public constant name = \"CUSD\";\n    string public constant symbol = \"CUSD\";\n    uint8 public constant decimals = 18;\n\n    /** Modifiers **/\n\n    /** @notice Checks whether a user's blacklisted status\n     * @param _user The address of the user\n     * @return True if not blacklisted, False if blacklisted\n    **/\n    modifier userNotBlacklisted(address _user) {\n        require(!blacklist.blacklisted(_user), \"User's assets are temporarily frozen\");\n        _;\n    }\n\n    /** Functions **/\n\n    /**\n    * @notice Allows user to mint if they have the appropriate permissions\n    * @param _to The address of the receiver\n    * @param _amount The number of tokens to mint\n    */\n    function mint(address _to, uint256 _amount) public userNotBlacklisted(_to) onlyOwner whenNotPaused {\n        _mint(_to, _amount);\n    }\n\n    /**\n    * @notice Remove CUSD from supply\n    * @param _amount The number of tokens to burn\n    * @return `true` if successful and `false` if unsuccessful\n    */\n    function burn(uint256 _amount) public userNotBlacklisted(msg.sender) whenNotPaused {\n        _burn(msg.sender, _amount);\n    }\n\n    /**\n    * @notice Implements ERC-20 standard approve function. Locked or disabled by default to protect against\n    * double spend attacks. To modify allowances, clients should call safer increase/decreaseApproval methods.\n    * Upon construction, all calls to approve() will revert unless this contract owner explicitly unlocks approve()\n    */\n    function approve(address _spender, uint256 _value) \n    public userNotBlacklisted(_spender) userNotBlacklisted(msg.sender) whenNotPaused whenUnlocked returns (bool) {\n        balances.setAllowance(msg.sender, _spender, _value);\n        emit Approval(msg.sender, _spender, _value);\n        return true;\n    }\n\n    /**\n     * @dev Increase the amount of tokens that an owner allowed to a spender.\n     * @notice increaseApproval should be used instead of approve when the user's allowance\n     * is greater than 0. Using increaseApproval protects against potential double-spend attacks\n     * by moving the check of whether the user has spent their allowance to the time that the transaction \n     * is mined, removing the user's ability to double-spend\n     * @param _spender The address which will spend the funds.\n     * @param _addedValue The amount of tokens to increase the allowance by.\n     */\n    function increaseApproval(address _spender, uint256 _addedValue) \n    public userNotBlacklisted(_spender) userNotBlacklisted(msg.sender) whenNotPaused returns (bool) {\n        _increaseApproval(_spender, _addedValue, msg.sender);\n        return true;\n    }\n\n    /**\n     * @dev Decrease the amount of tokens that an owner allowed to a spender.\n     * @notice decreaseApproval should be used instead of approve when the user's allowance\n     * is greater than 0. Using decreaseApproval protects against potential double-spend attacks\n     * by moving the check of whether the user has spent their allowance to the time that the transaction \n     * is mined, removing the user's ability to double-spend\n     * @param _spender The address which will spend the funds.\n     * @param _subtractedValue The amount of tokens to decrease the allowance by.\n     */\n    function decreaseApproval(address _spender, uint256 _subtractedValue) \n    public userNotBlacklisted(_spender) userNotBlacklisted(msg.sender) whenNotPaused returns (bool) {\n        _decreaseApproval(_spender, _subtractedValue, msg.sender);\n        return true;\n    }\n\n    /**\n    * @notice Initiates a \"send\" operation towards another user. See `transferFrom` for details.\n    * @param _to The address of the receiver. This user must not be blacklisted\n    * @param _amount The number of tokens to transfer\n    *\n    * @return `true` if successful \n    */\n    function transfer(address _to, uint256 _amount) public userNotBlacklisted(_to) userNotBlacklisted(msg.sender) whenNotPaused returns (bool) {\n        _transfer(_to, msg.sender, _amount);\n        return true;\n    }\n\n    /**\n    * @notice Initiates a transfer operation between address `_from` and `_to`. Requires that the\n    * message sender is an approved spender on the _from account.\n    * @dev When implemented, it should use the transferFromConditionsRequired() modifier.\n    * @param _to The address of the recipient. This address must not be blacklisted.\n    * @param _from The address of the origin of funds. This address _could_ be blacklisted, because\n    * a regulator may want to transfer tokens out of a blacklisted account, for example.\n    * In order to do so, the regulator would have to add themselves as an approved spender\n    * on the account via `addBlacklistAddressSpender()`, and would then be able to transfer tokens out of it.\n    * @param _amount The number of tokens to transfer\n    * @return `true` if successful \n    */\n    function transferFrom(address _from, address _to, uint256 _amount) \n    public userNotBlacklisted(_to) userNotBlacklisted(_from) userNotBlacklisted(msg.sender) whenNotPaused returns (bool) {\n        require(_amount <= allowance(_from, msg.sender),\"not enough allowance to transfer\");\n        _transfer(_to, _from, _amount);\n        balances.subAllowance(_from, msg.sender, _amount);\n        return true;\n    }\n\n    function setBlacklistStatus(address _user, bool _blacklisted) public onlyOwner {\n        blacklist.setBlacklistStatus(_user, _blacklisted);\n    }\n\n    /**\n    * ERC20 standard functions\n    */\n    function allowance(address owner, address spender) public view returns (uint256) {\n        return balances.allowances(owner, spender);\n    }\n\n    function totalSupply() public view returns (uint256) {\n        return balances.totalSupply();\n    }\n\n    function balanceOf(address _addr) public view returns (uint256) {\n        return balances.balances(_addr);\n    }\n\n\n    /** Internal functions **/\n    \n    function _decreaseApproval(address _spender, uint256 _subtractedValue, address _tokenHolder) internal {\n        uint256 oldValue = allowance(_tokenHolder, _spender);\n        if (_subtractedValue > oldValue) {\n            balances.setAllowance(_tokenHolder, _spender, 0);\n        } else {\n            balances.subAllowance(_tokenHolder, _spender, _subtractedValue);\n        }\n        emit Approval(_tokenHolder, _spender, allowance(_tokenHolder, _spender));\n    }\n\n    function _increaseApproval(address _spender, uint256 _addedValue, address _tokenHolder) internal {\n        balances.addAllowance(_tokenHolder, _spender, _addedValue);\n        emit Approval(_tokenHolder, _spender, allowance(_tokenHolder, _spender));\n    }\n\n    function _burn(address _tokensOf, uint256 _amount) internal {\n        require(_tokensOf != address(0),\"burner address cannot be 0x0\");\n        require(_amount <= balanceOf(_tokensOf),\"not enough balance to burn\");\n        // no need to require value <= totalSupply, since that would imply the\n        // sender's balance is greater than the totalSupply, which *should* be an assertion failure\n        balances.subBalance(_tokensOf, _amount);\n        balances.subTotalSupply(_amount);\n        emit Burn(_tokensOf, _amount);\n        emit Transfer(_tokensOf, address(0), _amount);\n    }\n\n    function _mint(address _to, uint256 _amount) internal {\n        require(_to != address(0),\"to address cannot be 0x0\");\n        balances.addTotalSupply(_amount);\n        balances.addBalance(_to, _amount);\n        emit Mint(_to, _amount);\n        emit Transfer(address(0), _to, _amount);\n    }\n\n    function _transfer(address _to, address _from, uint256 _amount) internal {\n        require(_to != address(0),\"to address cannot be 0x0\");\n        require(_amount <= balanceOf(_from),\"not enough balance to transfer\");\n\n        balances.addBalance(_to, _amount);\n        balances.subBalance(_from, _amount);\n        emit Transfer(_from, _to, _amount);\n    }\n\n}",
    "sourcePath": "/Users/nicholaspai/Carbon/fiatgateway_harmonycontracts/contracts/tokens/CarbonDollar.sol",
    "compiler": {
        "name": "solc",
        "version": "0.5.0+commit.1d4f565a.Emscripten.clang"
    },
    "schemaVersion": "3.0.2",
    "updatedAt": "2019-10-11T20:07:44.622Z",
    "devdoc": {
        "methods": {
            "burn(uint256)": {
                "params": {
                    "_amount": "The number of tokens to burn"
                },
                "return": "`true` if successful and `false` if unsuccessful"
            },
            "claimOwnership()": {
                "details": "Allows the pendingOwner address to finalize the transfer."
            },
            "constructor": {
                "details": "create a new CarbonDollar with new storage contracts*"
            },
            "decreaseAllowance(address,uint256)": {
                "details": "Atomically decreases the allowance granted to `spender` by the caller.     * This is an alternative to `approve` that can be used as a mitigation for problems described in `IERC20.approve`.     * Emits an `Approval` event indicating the updated allowance.     * Requirements:     * - `spender` cannot be the zero address. - `spender` must have allowance for the caller of at least `subtractedValue`."
            },
            "decreaseApproval(address,uint256)": {
                "details": "Decrease the amount of tokens that an owner allowed to a spender.",
                "params": {
                    "_spender": "The address which will spend the funds.",
                    "_subtractedValue": "The amount of tokens to decrease the allowance by."
                }
            },
            "increaseAllowance(address,uint256)": {
                "details": "Atomically increases the allowance granted to `spender` by the caller.     * This is an alternative to `approve` that can be used as a mitigation for problems described in `IERC20.approve`.     * Emits an `Approval` event indicating the updated allowance.     * Requirements:     * - `spender` cannot be the zero address."
            },
            "increaseApproval(address,uint256)": {
                "details": "Increase the amount of tokens that an owner allowed to a spender.",
                "params": {
                    "_addedValue": "The amount of tokens to increase the allowance by.",
                    "_spender": "The address which will spend the funds."
                }
            },
            "lock()": {
                "details": "called by the owner to disable method, back to normal state"
            },
            "mint(address,uint256)": {
                "params": {
                    "_amount": "The number of tokens to mint",
                    "_to": "The address of the receiver"
                }
            },
            "pause()": {
                "details": "called by the owner to pause, triggers stopped state"
            },
            "transfer(address,uint256)": {
                "params": {
                    "_amount": "The number of tokens to transfer",
                    "_to": "The address of the receiver. This user must not be blacklisted"
                },
                "return": "`true` if successful "
            },
            "transferFrom(address,address,uint256)": {
                "details": "When implemented, it should use the transferFromConditionsRequired() modifier.",
                "params": {
                    "_amount": "The number of tokens to transfer",
                    "_from": "The address of the origin of funds. This address _could_ be blacklisted, because a regulator may want to transfer tokens out of a blacklisted account, for example. In order to do so, the regulator would have to add themselves as an approved spender on the account via `addBlacklistAddressSpender()`, and would then be able to transfer tokens out of it.",
                    "_to": "The address of the recipient. This address must not be blacklisted."
                },
                "return": "`true` if successful "
            },
            "transferOwnership(address)": {
                "details": "Allows the current owner to transfer control of the contract to a newOwner.",
                "params": {
                    "_newOwner": "The address to transfer ownership to."
                }
            },
            "unlock()": {
                "details": "called by the owner to enable method"
            },
            "unpause()": {
                "details": "called by the owner to unpause, returns to normal state"
            }
        },
        "title": "Carbon Dollar"
    },
    "userdoc": {
        "methods": {
            "allowance(address,address)": {
                "notice": "ERC20 standard functions"
            },
            "approve(address,uint256)": {
                "notice": "Implements ERC-20 standard approve function. Locked or disabled by default to protect against double spend attacks. To modify allowances, clients should call safer increase/decreaseApproval methods. Upon construction, all calls to approve() will revert unless this contract owner explicitly unlocks approve()"
            },
            "burn(uint256)": {
                "notice": "Remove CUSD from supply"
            },
            "decreaseApproval(address,uint256)": {
                "notice": "decreaseApproval should be used instead of approve when the user's allowance is greater than 0. Using decreaseApproval protects against potential double-spend attacks by moving the check of whether the user has spent their allowance to the time that the transaction  is mined, removing the user's ability to double-spend"
            },
            "increaseApproval(address,uint256)": {
                "notice": "increaseApproval should be used instead of approve when the user's allowance is greater than 0. Using increaseApproval protects against potential double-spend attacks by moving the check of whether the user has spent their allowance to the time that the transaction  is mined, removing the user's ability to double-spend"
            },
            "mint(address,uint256)": {
                "notice": "Allows user to mint if they have the appropriate permissions"
            },
            "transfer(address,uint256)": {
                "notice": "Initiates a \"send\" operation towards another user. See `transferFrom` for details."
            },
            "transferFrom(address,address,uint256)": {
                "notice": "Initiates a transfer operation between address `_from` and `_to`. Requires that the message sender is an approved spender on the _from account."
            }
        },
        "notice": "A simple mintable and burnable erc20"
    }
}