{
    "contractName": "CarbonDollar",
    "abi": [
        {
            "constant": true,
            "inputs": [],
            "name": "name",
            "outputs": [
                {
                    "name": "",
                    "type": "string"
                }
            ],
            "payable": false,
            "stateMutability": "view",
            "type": "function"
        },
        {
            "constant": true,
            "inputs": [],
            "name": "decimals",
            "outputs": [
                {
                    "name": "",
                    "type": "uint8"
                }
            ],
            "payable": false,
            "stateMutability": "view",
            "type": "function"
        },
        {
            "constant": false,
            "inputs": [],
            "name": "unpause",
            "outputs": [],
            "payable": false,
            "stateMutability": "nonpayable",
            "type": "function"
        },
        {
            "constant": false,
            "inputs": [],
            "name": "claimOwnership",
            "outputs": [],
            "payable": false,
            "stateMutability": "nonpayable",
            "type": "function"
        },
        {
            "constant": true,
            "inputs": [],
            "name": "paused",
            "outputs": [
                {
                    "name": "",
                    "type": "bool"
                }
            ],
            "payable": false,
            "stateMutability": "view",
            "type": "function"
        },
        {
            "constant": true,
            "inputs": [],
            "name": "balances",
            "outputs": [
                {
                    "name": "",
                    "type": "address"
                }
            ],
            "payable": false,
            "stateMutability": "view",
            "type": "function"
        },
        {
            "constant": false,
            "inputs": [],
            "name": "pause",
            "outputs": [],
            "payable": false,
            "stateMutability": "nonpayable",
            "type": "function"
        },
        {
            "constant": true,
            "inputs": [],
            "name": "isMethodEnabled",
            "outputs": [
                {
                    "name": "",
                    "type": "bool"
                }
            ],
            "payable": false,
            "stateMutability": "view",
            "type": "function"
        },
        {
            "constant": true,
            "inputs": [],
            "name": "owner",
            "outputs": [
                {
                    "name": "",
                    "type": "address"
                }
            ],
            "payable": false,
            "stateMutability": "view",
            "type": "function"
        },
        {
            "constant": true,
            "inputs": [],
            "name": "symbol",
            "outputs": [
                {
                    "name": "",
                    "type": "string"
                }
            ],
            "payable": false,
            "stateMutability": "view",
            "type": "function"
        },
        {
            "constant": true,
            "inputs": [],
            "name": "blacklist",
            "outputs": [
                {
                    "name": "",
                    "type": "address"
                }
            ],
            "payable": false,
            "stateMutability": "view",
            "type": "function"
        },
        {
            "constant": false,
            "inputs": [],
            "name": "unlock",
            "outputs": [],
            "payable": false,
            "stateMutability": "nonpayable",
            "type": "function"
        },
        {
            "constant": true,
            "inputs": [],
            "name": "pendingOwner",
            "outputs": [
                {
                    "name": "",
                    "type": "address"
                }
            ],
            "payable": false,
            "stateMutability": "view",
            "type": "function"
        },
        {
            "constant": false,
            "inputs": [
                {
                    "name": "_newOwner",
                    "type": "address"
                }
            ],
            "name": "transferOwnership",
            "outputs": [],
            "payable": false,
            "stateMutability": "nonpayable",
            "type": "function"
        },
        {
            "constant": false,
            "inputs": [],
            "name": "lock",
            "outputs": [],
            "payable": false,
            "stateMutability": "nonpayable",
            "type": "function"
        },
        {
            "inputs": [],
            "payable": false,
            "stateMutability": "nonpayable",
            "type": "constructor"
        },
        {
            "anonymous": false,
            "inputs": [
                {
                    "indexed": true,
                    "name": "to",
                    "type": "address"
                },
                {
                    "indexed": false,
                    "name": "value",
                    "type": "uint256"
                }
            ],
            "name": "Mint",
            "type": "event"
        },
        {
            "anonymous": false,
            "inputs": [
                {
                    "indexed": true,
                    "name": "burner",
                    "type": "address"
                },
                {
                    "indexed": false,
                    "name": "value",
                    "type": "uint256"
                }
            ],
            "name": "Burn",
            "type": "event"
        },
        {
            "anonymous": false,
            "inputs": [
                {
                    "indexed": true,
                    "name": "from",
                    "type": "address"
                },
                {
                    "indexed": true,
                    "name": "to",
                    "type": "address"
                },
                {
                    "indexed": false,
                    "name": "value",
                    "type": "uint256"
                }
            ],
            "name": "Transfer",
            "type": "event"
        },
        {
            "anonymous": false,
            "inputs": [
                {
                    "indexed": true,
                    "name": "owner",
                    "type": "address"
                },
                {
                    "indexed": true,
                    "name": "spender",
                    "type": "address"
                },
                {
                    "indexed": false,
                    "name": "value",
                    "type": "uint256"
                }
            ],
            "name": "Approval",
            "type": "event"
        },
        {
            "anonymous": false,
            "inputs": [],
            "name": "Unlocked",
            "type": "event"
        },
        {
            "anonymous": false,
            "inputs": [],
            "name": "Locked",
            "type": "event"
        },
        {
            "anonymous": false,
            "inputs": [],
            "name": "Pause",
            "type": "event"
        },
        {
            "anonymous": false,
            "inputs": [],
            "name": "Unpause",
            "type": "event"
        },
        {
            "anonymous": false,
            "inputs": [
                {
                    "indexed": true,
                    "name": "previousOwner",
                    "type": "address"
                },
                {
                    "indexed": true,
                    "name": "newOwner",
                    "type": "address"
                }
            ],
            "name": "OwnershipTransferred",
            "type": "event"
        },
        {
            "constant": false,
            "inputs": [
                {
                    "name": "_to",
                    "type": "address"
                },
                {
                    "name": "_amount",
                    "type": "uint256"
                }
            ],
            "name": "mint",
            "outputs": [],
            "payable": false,
            "stateMutability": "nonpayable",
            "type": "function"
        },
        {
            "constant": false,
            "inputs": [
                {
                    "name": "_amount",
                    "type": "uint256"
                }
            ],
            "name": "burn",
            "outputs": [],
            "payable": false,
            "stateMutability": "nonpayable",
            "type": "function"
        },
        {
            "constant": false,
            "inputs": [
                {
                    "name": "_spender",
                    "type": "address"
                },
                {
                    "name": "_value",
                    "type": "uint256"
                }
            ],
            "name": "approve",
            "outputs": [
                {
                    "name": "",
                    "type": "bool"
                }
            ],
            "payable": false,
            "stateMutability": "nonpayable",
            "type": "function"
        },
        {
            "constant": false,
            "inputs": [
                {
                    "name": "_spender",
                    "type": "address"
                },
                {
                    "name": "_addedValue",
                    "type": "uint256"
                }
            ],
            "name": "increaseApproval",
            "outputs": [
                {
                    "name": "",
                    "type": "bool"
                }
            ],
            "payable": false,
            "stateMutability": "nonpayable",
            "type": "function"
        },
        {
            "constant": false,
            "inputs": [
                {
                    "name": "_spender",
                    "type": "address"
                },
                {
                    "name": "_subtractedValue",
                    "type": "uint256"
                }
            ],
            "name": "decreaseApproval",
            "outputs": [
                {
                    "name": "",
                    "type": "bool"
                }
            ],
            "payable": false,
            "stateMutability": "nonpayable",
            "type": "function"
        },
        {
            "constant": false,
            "inputs": [
                {
                    "name": "_to",
                    "type": "address"
                },
                {
                    "name": "_amount",
                    "type": "uint256"
                }
            ],
            "name": "transfer",
            "outputs": [
                {
                    "name": "",
                    "type": "bool"
                }
            ],
            "payable": false,
            "stateMutability": "nonpayable",
            "type": "function"
        },
        {
            "constant": false,
            "inputs": [
                {
                    "name": "_from",
                    "type": "address"
                },
                {
                    "name": "_to",
                    "type": "address"
                },
                {
                    "name": "_amount",
                    "type": "uint256"
                }
            ],
            "name": "transferFrom",
            "outputs": [
                {
                    "name": "",
                    "type": "bool"
                }
            ],
            "payable": false,
            "stateMutability": "nonpayable",
            "type": "function"
        },
        {
            "constant": false,
            "inputs": [
                {
                    "name": "_user",
                    "type": "address"
                },
                {
                    "name": "_blacklisted",
                    "type": "bool"
                }
            ],
            "name": "setBlacklistStatus",
            "outputs": [],
            "payable": false,
            "stateMutability": "nonpayable",
            "type": "function"
        },
        {
            "constant": true,
            "inputs": [
                {
                    "name": "owner",
                    "type": "address"
                },
                {
                    "name": "spender",
                    "type": "address"
                }
            ],
            "name": "allowance",
            "outputs": [
                {
                    "name": "",
                    "type": "uint256"
                }
            ],
            "payable": false,
            "stateMutability": "view",
            "type": "function"
        },
        {
            "constant": true,
            "inputs": [],
            "name": "totalSupply",
            "outputs": [
                {
                    "name": "",
                    "type": "uint256"
                }
            ],
            "payable": false,
            "stateMutability": "view",
            "type": "function"
        },
        {
            "constant": true,
            "inputs": [
                {
                    "name": "_addr",
                    "type": "address"
                }
            ],
            "name": "balanceOf",
            "outputs": [
                {
                    "name": "",
                    "type": "uint256"
                }
            ],
            "payable": false,
            "stateMutability": "view",
            "type": "function"
        }
    ],
    "bytecode": "0x60806040526000600160146101000a81548160ff0219169083151502179055506000600160156101000a81548160ff0219169083151502179055503480156200004757600080fd5b50d380156200005557600080fd5b50d280156200006357600080fd5b50336000806101000a81548173ffffffffffffffffffffffffffffffffffffffff021916908373ffffffffffffffffffffffffffffffffffffffff1602179055506000600160006101000a81548173ffffffffffffffffffffffffffffffffffffffff021916908373ffffffffffffffffffffffffffffffffffffffff160217905550620000f0620001bc565b604051809103906000f0801580156200010d573d6000803e3d6000fd5b50600260006101000a81548173ffffffffffffffffffffffffffffffffffffffff021916908373ffffffffffffffffffffffffffffffffffffffff16021790555062000158620001cd565b604051809103906000f08015801562000175573d6000803e3d6000fd5b50600360006101000a81548173ffffffffffffffffffffffffffffffffffffffff021916908373ffffffffffffffffffffffffffffffffffffffff160217905550620001de565b6040516112e08062003f8283390190565b604051610779806200526283390190565b613d9480620001ee6000396000f300608060405260043610610154576000357c0100000000000000000000000000000000000000000000000000000000900463ffffffff16806303d29d281461015957806306fdde03146101c2578063095ea7b31461026c57806318160ddd146102eb57806323b872dd14610330578063313ce567146103cf5780633f4ba83a1461041a57806340c10f191461044b57806342966c68146104b25780634e71e0c8146104f95780635c975abb1461052a578063661884631461057357806370a08231146105f25780637bb98a68146106635780638456cb59146106d457806388fa2617146107055780638da5cb5b1461074e57806395d89b41146107bf578063a4b5fa5614610869578063a69df4b5146108da578063a9059cbb1461090b578063d73dd6231461098a578063dd62ed3e14610a09578063e30c397814610a9a578063f2fde38b14610b0b578063f83d08ba14610b68575b600080fd5b34801561016557600080fd5b50d3801561017257600080fd5b50d2801561017f57600080fd5b506101c0600480360381019080803573ffffffffffffffffffffffffffffffffffffffff169060200190929190803515159060200190929190505050610b99565b005b3480156101ce57600080fd5b50d380156101db57600080fd5b50d280156101e857600080fd5b506101f1610cd9565b6040518080602001828103825283818151815260200191508051906020019080838360005b83811015610231578082015181840152602081019050610216565b50505050905090810190601f16801561025e5780820380516001836020036101000a031916815260200191505b509250505060405180910390f35b34801561027857600080fd5b50d3801561028557600080fd5b50d2801561029257600080fd5b506102d1600480360381019080803573ffffffffffffffffffffffffffffffffffffffff16906020019092919080359060200190929190505050610d12565b604051808215151515815260200191505060405180910390f35b3480156102f757600080fd5b50d3801561030457600080fd5b50d2801561031157600080fd5b5061031a6111f5565b6040518082815260200191505060405180910390f35b34801561033c57600080fd5b50d3801561034957600080fd5b50d2801561035657600080fd5b506103b5600480360381019080803573ffffffffffffffffffffffffffffffffffffffff169060200190929190803573ffffffffffffffffffffffffffffffffffffffff169060200190929190803590602001909291905050506112bd565b604051808215151515815260200191505060405180910390f35b3480156103db57600080fd5b50d380156103e857600080fd5b50d280156103f557600080fd5b506103fe611942565b604051808260ff1660ff16815260200191505060405180910390f35b34801561042657600080fd5b50d3801561043357600080fd5b50d2801561044057600080fd5b50610449611947565b005b34801561045757600080fd5b50d3801561046457600080fd5b50d2801561047157600080fd5b506104b0600480360381019080803573ffffffffffffffffffffffffffffffffffffffff16906020019092919080359060200190929190505050611a06565b005b3480156104be57600080fd5b50d380156104cb57600080fd5b50d280156104d857600080fd5b506104f760048036038101908080359060200190929190505050611c20565b005b34801561050557600080fd5b50d3801561051257600080fd5b50d2801561051f57600080fd5b50610528611dde565b005b34801561053657600080fd5b50d3801561054357600080fd5b50d2801561055057600080fd5b50610559611f7d565b604051808215151515815260200191505060405180910390f35b34801561057f57600080fd5b50d3801561058c57600080fd5b50d2801561059957600080fd5b506105d8600480360381019080803573ffffffffffffffffffffffffffffffffffffffff16906020019092919080359060200190929190505050611f90565b604051808215151515815260200191505060405180910390f35b3480156105fe57600080fd5b50d3801561060b57600080fd5b50d2801561061857600080fd5b5061064d600480360381019080803573ffffffffffffffffffffffffffffffffffffffff1690602001909291905050506122ed565b6040518082815260200191505060405180910390f35b34801561066f57600080fd5b50d3801561067c57600080fd5b50d2801561068957600080fd5b506106926123ee565b604051808273ffffffffffffffffffffffffffffffffffffffff1673ffffffffffffffffffffffffffffffffffffffff16815260200191505060405180910390f35b3480156106e057600080fd5b50d380156106ed57600080fd5b50d280156106fa57600080fd5b50610703612414565b005b34801561071157600080fd5b50d3801561071e57600080fd5b50d2801561072b57600080fd5b506107346124d3565b604051808215151515815260200191505060405180910390f35b34801561075a57600080fd5b50d3801561076757600080fd5b50d2801561077457600080fd5b5061077d6124e6565b604051808273ffffffffffffffffffffffffffffffffffffffff1673ffffffffffffffffffffffffffffffffffffffff16815260200191505060405180910390f35b3480156107cb57600080fd5b50d380156107d857600080fd5b50d280156107e557600080fd5b506107ee61250b565b6040518080602001828103825283818151815260200191508051906020019080838360005b8381101561082e578082015181840152602081019050610813565b50505050905090810190601f16801561085b5780820380516001836020036101000a031916815260200191505b509250505060405180910390f35b34801561087557600080fd5b50d3801561088257600080fd5b50d2801561088f57600080fd5b50610898612544565b604051808273ffffffffffffffffffffffffffffffffffffffff1673ffffffffffffffffffffffffffffffffffffffff16815260200191505060405180910390f35b3480156108e657600080fd5b50d380156108f357600080fd5b50d2801561090057600080fd5b5061090961256a565b005b34801561091757600080fd5b50d3801561092457600080fd5b50d2801561093157600080fd5b50610970600480360381019080803573ffffffffffffffffffffffffffffffffffffffff1690602001909291908035906020019092919050505061260d565b604051808215151515815260200191505060405180910390f35b34801561099657600080fd5b50d380156109a357600080fd5b50d280156109b057600080fd5b506109ef600480360381019080803573ffffffffffffffffffffffffffffffffffffffff1690602001909291908035906020019092919050505061296a565b604051808215151515815260200191505060405180910390f35b348015610a1557600080fd5b50d38015610a2257600080fd5b50d28015610a2f57600080fd5b50610a84600480360381019080803573ffffffffffffffffffffffffffffffffffffffff169060200190929190803573ffffffffffffffffffffffffffffffffffffffff169060200190929190505050612cc7565b6040518082815260200191505060405180910390f35b348015610aa657600080fd5b50d38015610ab357600080fd5b50d28015610ac057600080fd5b50610ac9612dfd565b604051808273ffffffffffffffffffffffffffffffffffffffff1673ffffffffffffffffffffffffffffffffffffffff16815260200191505060405180910390f35b348015610b1757600080fd5b50d38015610b2457600080fd5b50d28015610b3157600080fd5b50610b66600480360381019080803573ffffffffffffffffffffffffffffffffffffffff169060200190929190505050612e23565b005b348015610b7457600080fd5b50d38015610b8157600080fd5b50d28015610b8e57600080fd5b50610b97612efe565b005b6000809054906101000a900473ffffffffffffffffffffffffffffffffffffffff1673ffffffffffffffffffffffffffffffffffffffff163373ffffffffffffffffffffffffffffffffffffffff16141515610bf457600080fd5b600360009054906101000a900473ffffffffffffffffffffffffffffffffffffffff1673ffffffffffffffffffffffffffffffffffffffff166303d29d2883836040518363ffffffff167c0100000000000000000000000000000000000000000000000000000000028152600401808373ffffffffffffffffffffffffffffffffffffffff1673ffffffffffffffffffffffffffffffffffffffff1681526020018215151515815260200192505050600060405180830381600087803b158015610cbd57600080fd5b505af1158015610cd1573d6000803e3d6000fd5b505050505050565b6040805190810160405280600481526020017f435553440000000000000000000000000000000000000000000000000000000081525081565b600082600360009054906101000a900473ffffffffffffffffffffffffffffffffffffffff1673ffffffffffffffffffffffffffffffffffffffff1663dbac26e9826040518263ffffffff167c0100000000000000000000000000000000000000000000000000000000028152600401808273ffffffffffffffffffffffffffffffffffffffff1673ffffffffffffffffffffffffffffffffffffffff168152602001915050602060405180830381600087803b158015610dd257600080fd5b505af1158015610de6573d6000803e3d6000fd5b505050506040513d6020811015610dfc57600080fd5b8101908080519060200190929190505050151515610ea8576040517f08c379a00000000000000000000000000000000000000000000000000000000081526004018080602001828103825260248152602001807f55736572277320617373657473206172652074656d706f726172696c7920667281526020017f6f7a656e0000000000000000000000000000000000000000000000000000000081525060400191505060405180910390fd5b33600360009054906101000a900473ffffffffffffffffffffffffffffffffffffffff1673ffffffffffffffffffffffffffffffffffffffff1663dbac26e9826040518263ffffffff167c0100000000000000000000000000000000000000000000000000000000028152600401808273ffffffffffffffffffffffffffffffffffffffff1673ffffffffffffffffffffffffffffffffffffffff168152602001915050602060405180830381600087803b158015610f6657600080fd5b505af1158015610f7a573d6000803e3d6000fd5b505050506040513d6020811015610f9057600080fd5b810190808051906020019092919050505015151561103c576040517f08c379a00000000000000000000000000000000000000000000000000000000081526004018080602001828103825260248152602001807f55736572277320617373657473206172652074656d706f726172696c7920667281526020017f6f7a656e0000000000000000000000000000000000000000000000000000000081525060400191505060405180910390fd5b600160149054906101000a900460ff1615151561105857600080fd5b600160159054906101000a900460ff16151561107357600080fd5b600260009054906101000a900473ffffffffffffffffffffffffffffffffffffffff1673ffffffffffffffffffffffffffffffffffffffff1663da46098c3387876040518463ffffffff167c0100000000000000000000000000000000000000000000000000000000028152600401808473ffffffffffffffffffffffffffffffffffffffff1673ffffffffffffffffffffffffffffffffffffffff1681526020018373ffffffffffffffffffffffffffffffffffffffff1673ffffffffffffffffffffffffffffffffffffffff1681526020018281526020019350505050600060405180830381600087803b15801561116c57600080fd5b505af1158015611180573d6000803e3d6000fd5b505050508473ffffffffffffffffffffffffffffffffffffffff163373ffffffffffffffffffffffffffffffffffffffff167f8c5be1e5ebec7d5bd14f71427d1e84f3dd0314c0f7b2291e5b200ac8c7c3b925866040518082815260200191505060405180910390a360019250505092915050565b6000600260009054906101000a900473ffffffffffffffffffffffffffffffffffffffff1673ffffffffffffffffffffffffffffffffffffffff166318160ddd6040518163ffffffff167c0100000000000000000000000000000000000000000000000000000000028152600401602060405180830381600087803b15801561127d57600080fd5b505af1158015611291573d6000803e3d6000fd5b505050506040513d60208110156112a757600080fd5b8101908080519060200190929190505050905090565b600082600360009054906101000a900473ffffffffffffffffffffffffffffffffffffffff1673ffffffffffffffffffffffffffffffffffffffff1663dbac26e9826040518263ffffffff167c0100000000000000000000000000000000000000000000000000000000028152600401808273ffffffffffffffffffffffffffffffffffffffff1673ffffffffffffffffffffffffffffffffffffffff168152602001915050602060405180830381600087803b15801561137d57600080fd5b505af1158015611391573d6000803e3d6000fd5b505050506040513d60208110156113a757600080fd5b8101908080519060200190929190505050151515611453576040517f08c379a00000000000000000000000000000000000000000000000000000000081526004018080602001828103825260248152602001807f55736572277320617373657473206172652074656d706f726172696c7920667281526020017f6f7a656e0000000000000000000000000000000000000000000000000000000081525060400191505060405180910390fd5b84600360009054906101000a900473ffffffffffffffffffffffffffffffffffffffff1673ffffffffffffffffffffffffffffffffffffffff1663dbac26e9826040518263ffffffff167c0100000000000000000000000000000000000000000000000000000000028152600401808273ffffffffffffffffffffffffffffffffffffffff1673ffffffffffffffffffffffffffffffffffffffff168152602001915050602060405180830381600087803b15801561151157600080fd5b505af1158015611525573d6000803e3d6000fd5b505050506040513d602081101561153b57600080fd5b81019080805190602001909291905050501515156115e7576040517f08c379a00000000000000000000000000000000000000000000000000000000081526004018080602001828103825260248152602001807f55736572277320617373657473206172652074656d706f726172696c7920667281526020017f6f7a656e0000000000000000000000000000000000000000000000000000000081525060400191505060405180910390fd5b33600360009054906101000a900473ffffffffffffffffffffffffffffffffffffffff1673ffffffffffffffffffffffffffffffffffffffff1663dbac26e9826040518263ffffffff167c0100000000000000000000000000000000000000000000000000000000028152600401808273ffffffffffffffffffffffffffffffffffffffff1673ffffffffffffffffffffffffffffffffffffffff168152602001915050602060405180830381600087803b1580156116a557600080fd5b505af11580156116b9573d6000803e3d6000fd5b505050506040513d60208110156116cf57600080fd5b810190808051906020019092919050505015151561177b576040517f08c379a00000000000000000000000000000000000000000000000000000000081526004018080602001828103825260248152602001807f55736572277320617373657473206172652074656d706f726172696c7920667281526020017f6f7a656e0000000000000000000000000000000000000000000000000000000081525060400191505060405180910390fd5b600160149054906101000a900460ff1615151561179757600080fd5b6117a18733612cc7565b8511151515611818576040517f08c379a00000000000000000000000000000000000000000000000000000000081526004018080602001828103825260208152602001807f6e6f7420656e6f75676820616c6c6f77616e636520746f207472616e7366657281525060200191505060405180910390fd5b611823868887612fa2565b600260009054906101000a900473ffffffffffffffffffffffffffffffffffffffff1673ffffffffffffffffffffffffffffffffffffffff166397d88cd28833886040518463ffffffff167c0100000000000000000000000000000000000000000000000000000000028152600401808473ffffffffffffffffffffffffffffffffffffffff1673ffffffffffffffffffffffffffffffffffffffff1681526020018373ffffffffffffffffffffffffffffffffffffffff1673ffffffffffffffffffffffffffffffffffffffff1681526020018281526020019350505050600060405180830381600087803b15801561191c57600080fd5b505af1158015611930573d6000803e3d6000fd5b50505050600193505050509392505050565b601281565b6000809054906101000a900473ffffffffffffffffffffffffffffffffffffffff1673ffffffffffffffffffffffffffffffffffffffff163373ffffffffffffffffffffffffffffffffffffffff161415156119a257600080fd5b600160149054906101000a900460ff1615156119bd57600080fd5b6000600160146101000a81548160ff0219169083151502179055507f7805862f689e2f13df9f062ff482ad3ad112aca9e0847911ed832e158c525b3360405160405180910390a1565b81600360009054906101000a900473ffffffffffffffffffffffffffffffffffffffff1673ffffffffffffffffffffffffffffffffffffffff1663dbac26e9826040518263ffffffff167c0100000000000000000000000000000000000000000000000000000000028152600401808273ffffffffffffffffffffffffffffffffffffffff1673ffffffffffffffffffffffffffffffffffffffff168152602001915050602060405180830381600087803b158015611ac457600080fd5b505af1158015611ad8573d6000803e3d6000fd5b505050506040513d6020811015611aee57600080fd5b8101908080519060200190929190505050151515611b9a576040517f08c379a00000000000000000000000000000000000000000000000000000000081526004018080602001828103825260248152602001807f55736572277320617373657473206172652074656d706f726172696c7920667281526020017f6f7a656e0000000000000000000000000000000000000000000000000000000081525060400191505060405180910390fd5b6000809054906101000a900473ffffffffffffffffffffffffffffffffffffffff1673ffffffffffffffffffffffffffffffffffffffff163373ffffffffffffffffffffffffffffffffffffffff16141515611bf557600080fd5b600160149054906101000a900460ff16151515611c1157600080fd5b611c1b83836132eb565b505050565b33600360009054906101000a900473ffffffffffffffffffffffffffffffffffffffff1673ffffffffffffffffffffffffffffffffffffffff1663dbac26e9826040518263ffffffff167c0100000000000000000000000000000000000000000000000000000000028152600401808273ffffffffffffffffffffffffffffffffffffffff1673ffffffffffffffffffffffffffffffffffffffff168152602001915050602060405180830381600087803b158015611cde57600080fd5b505af1158015611cf2573d6000803e3d6000fd5b505050506040513d6020811015611d0857600080fd5b8101908080519060200190929190505050151515611db4576040517f08c379a00000000000000000000000000000000000000000000000000000000081526004018080602001828103825260248152602001807f55736572277320617373657473206172652074656d706f726172696c7920667281526020017f6f7a656e0000000000000000000000000000000000000000000000000000000081525060400191505060405180910390fd5b600160149054906101000a900460ff16151515611dd057600080fd5b611dda33836135ce565b5050565b600160009054906101000a900473ffffffffffffffffffffffffffffffffffffffff1673ffffffffffffffffffffffffffffffffffffffff163373ffffffffffffffffffffffffffffffffffffffff16141515611e3a57600080fd5b600160009054906101000a900473ffffffffffffffffffffffffffffffffffffffff1673ffffffffffffffffffffffffffffffffffffffff166000809054906101000a900473ffffffffffffffffffffffffffffffffffffffff1673ffffffffffffffffffffffffffffffffffffffff167f8be0079c531659141344cd1fd0a4f28419497f9722a3daafe3b4186f6b6457e060405160405180910390a3600160009054906101000a900473ffffffffffffffffffffffffffffffffffffffff166000806101000a81548173ffffffffffffffffffffffffffffffffffffffff021916908373ffffffffffffffffffffffffffffffffffffffff1602179055506000600160006101000a81548173ffffffffffffffffffffffffffffffffffffffff021916908373ffffffffffffffffffffffffffffffffffffffff160217905550565b600160149054906101000a900460ff1681565b600082600360009054906101000a900473ffffffffffffffffffffffffffffffffffffffff1673ffffffffffffffffffffffffffffffffffffffff1663dbac26e9826040518263ffffffff167c0100000000000000000000000000000000000000000000000000000000028152600401808273ffffffffffffffffffffffffffffffffffffffff1673ffffffffffffffffffffffffffffffffffffffff168152602001915050602060405180830381600087803b15801561205057600080fd5b505af1158015612064573d6000803e3d6000fd5b505050506040513d602081101561207a57600080fd5b8101908080519060200190929190505050151515612126576040517f08c379a00000000000000000000000000000000000000000000000000000000081526004018080602001828103825260248152602001807f55736572277320617373657473206172652074656d706f726172696c7920667281526020017f6f7a656e0000000000000000000000000000000000000000000000000000000081525060400191505060405180910390fd5b33600360009054906101000a900473ffffffffffffffffffffffffffffffffffffffff1673ffffffffffffffffffffffffffffffffffffffff1663dbac26e9826040518263ffffffff167c0100000000000000000000000000000000000000000000000000000000028152600401808273ffffffffffffffffffffffffffffffffffffffff1673ffffffffffffffffffffffffffffffffffffffff168152602001915050602060405180830381600087803b1580156121e457600080fd5b505af11580156121f8573d6000803e3d6000fd5b505050506040513d602081101561220e57600080fd5b81019080805190602001909291905050501515156122ba576040517f08c379a00000000000000000000000000000000000000000000000000000000081526004018080602001828103825260248152602001807f55736572277320617373657473206172652074656d706f726172696c7920667281526020017f6f7a656e0000000000000000000000000000000000000000000000000000000081525060400191505060405180910390fd5b600160149054906101000a900460ff161515156122d657600080fd5b6122e1858533613931565b60019250505092915050565b6000600260009054906101000a900473ffffffffffffffffffffffffffffffffffffffff1673ffffffffffffffffffffffffffffffffffffffff166327e235e3836040518263ffffffff167c0100000000000000000000000000000000000000000000000000000000028152600401808273ffffffffffffffffffffffffffffffffffffffff1673ffffffffffffffffffffffffffffffffffffffff168152602001915050602060405180830381600087803b1580156123ac57600080fd5b505af11580156123c0573d6000803e3d6000fd5b505050506040513d60208110156123d657600080fd5b81019080805190602001909291905050509050919050565b600260009054906101000a900473ffffffffffffffffffffffffffffffffffffffff1681565b6000809054906101000a900473ffffffffffffffffffffffffffffffffffffffff1673ffffffffffffffffffffffffffffffffffffffff163373ffffffffffffffffffffffffffffffffffffffff1614151561246f57600080fd5b600160149054906101000a900460ff1615151561248b57600080fd5b60018060146101000a81548160ff0219169083151502179055507f6985a02210a168e66602d3235cb6db0e70f92b3ba4d376a33c0f3d9434bff62560405160405180910390a1565b600160159054906101000a900460ff1681565b6000809054906101000a900473ffffffffffffffffffffffffffffffffffffffff1681565b6040805190810160405280600481526020017f435553440000000000000000000000000000000000000000000000000000000081525081565b600360009054906101000a900473ffffffffffffffffffffffffffffffffffffffff1681565b6000809054906101000a900473ffffffffffffffffffffffffffffffffffffffff1673ffffffffffffffffffffffffffffffffffffffff163373ffffffffffffffffffffffffffffffffffffffff161415156125c557600080fd5b60018060156101000a81548160ff0219169083151502179055507f19aad37188a1d3921e29eb3c66acf43d81975e107cb650d58cca878627955fd660405160405180910390a1565b600082600360009054906101000a900473ffffffffffffffffffffffffffffffffffffffff1673ffffffffffffffffffffffffffffffffffffffff1663dbac26e9826040518263ffffffff167c0100000000000000000000000000000000000000000000000000000000028152600401808273ffffffffffffffffffffffffffffffffffffffff1673ffffffffffffffffffffffffffffffffffffffff168152602001915050602060405180830381600087803b1580156126cd57600080fd5b505af11580156126e1573d6000803e3d6000fd5b505050506040513d60208110156126f757600080fd5b81019080805190602001909291905050501515156127a3576040517f08c379a00000000000000000000000000000000000000000000000000000000081526004018080602001828103825260248152602001807f55736572277320617373657473206172652074656d706f726172696c7920667281526020017f6f7a656e0000000000000000000000000000000000000000000000000000000081525060400191505060405180910390fd5b33600360009054906101000a900473ffffffffffffffffffffffffffffffffffffffff1673ffffffffffffffffffffffffffffffffffffffff1663dbac26e9826040518263ffffffff167c0100000000000000000000000000000000000000000000000000000000028152600401808273ffffffffffffffffffffffffffffffffffffffff1673ffffffffffffffffffffffffffffffffffffffff168152602001915050602060405180830381600087803b15801561286157600080fd5b505af1158015612875573d6000803e3d6000fd5b505050506040513d602081101561288b57600080fd5b8101908080519060200190929190505050151515612937576040517f08c379a00000000000000000000000000000000000000000000000000000000081526004018080602001828103825260248152602001807f55736572277320617373657473206172652074656d706f726172696c7920667281526020017f6f7a656e0000000000000000000000000000000000000000000000000000000081525060400191505060405180910390fd5b600160149054906101000a900460ff1615151561295357600080fd5b61295e853386612fa2565b60019250505092915050565b600082600360009054906101000a900473ffffffffffffffffffffffffffffffffffffffff1673ffffffffffffffffffffffffffffffffffffffff1663dbac26e9826040518263ffffffff167c0100000000000000000000000000000000000000000000000000000000028152600401808273ffffffffffffffffffffffffffffffffffffffff1673ffffffffffffffffffffffffffffffffffffffff168152602001915050602060405180830381600087803b158015612a2a57600080fd5b505af1158015612a3e573d6000803e3d6000fd5b505050506040513d6020811015612a5457600080fd5b8101908080519060200190929190505050151515612b00576040517f08c379a00000000000000000000000000000000000000000000000000000000081526004018080602001828103825260248152602001807f55736572277320617373657473206172652074656d706f726172696c7920667281526020017f6f7a656e0000000000000000000000000000000000000000000000000000000081525060400191505060405180910390fd5b33600360009054906101000a900473ffffffffffffffffffffffffffffffffffffffff1673ffffffffffffffffffffffffffffffffffffffff1663dbac26e9826040518263ffffffff167c0100000000000000000000000000000000000000000000000000000000028152600401808273ffffffffffffffffffffffffffffffffffffffff1673ffffffffffffffffffffffffffffffffffffffff168152602001915050602060405180830381600087803b158015612bbe57600080fd5b505af1158015612bd2573d6000803e3d6000fd5b505050506040513d6020811015612be857600080fd5b8101908080519060200190929190505050151515612c94576040517f08c379a00000000000000000000000000000000000000000000000000000000081526004018080602001828103825260248152602001807f55736572277320617373657473206172652074656d706f726172696c7920667281526020017f6f7a656e0000000000000000000000000000000000000000000000000000000081525060400191505060405180910390fd5b600160149054906101000a900460ff16151515612cb057600080fd5b612cbb858533613be4565b60019250505092915050565b6000600260009054906101000a900473ffffffffffffffffffffffffffffffffffffffff1673ffffffffffffffffffffffffffffffffffffffff166355b6ed5c84846040518363ffffffff167c0100000000000000000000000000000000000000000000000000000000028152600401808373ffffffffffffffffffffffffffffffffffffffff1673ffffffffffffffffffffffffffffffffffffffff1681526020018273ffffffffffffffffffffffffffffffffffffffff1673ffffffffffffffffffffffffffffffffffffffff16815260200192505050602060405180830381600087803b158015612dba57600080fd5b505af1158015612dce573d6000803e3d6000fd5b505050506040513d6020811015612de457600080fd5b8101908080519060200190929190505050905092915050565b600160009054906101000a900473ffffffffffffffffffffffffffffffffffffffff1681565b6000809054906101000a900473ffffffffffffffffffffffffffffffffffffffff1673ffffffffffffffffffffffffffffffffffffffff163373ffffffffffffffffffffffffffffffffffffffff16141515612e7e57600080fd5b600073ffffffffffffffffffffffffffffffffffffffff168173ffffffffffffffffffffffffffffffffffffffff1614151515612eba57600080fd5b80600160006101000a81548173ffffffffffffffffffffffffffffffffffffffff021916908373ffffffffffffffffffffffffffffffffffffffff16021790555050565b6000809054906101000a900473ffffffffffffffffffffffffffffffffffffffff1673ffffffffffffffffffffffffffffffffffffffff163373ffffffffffffffffffffffffffffffffffffffff16141515612f5957600080fd5b6000600160156101000a81548160ff0219169083151502179055507f0f2e5b6c72c6a4491efd919a9f9a409f324ef0708c11ee57d410c2cb06c0992b60405160405180910390a1565b600073ffffffffffffffffffffffffffffffffffffffff168373ffffffffffffffffffffffffffffffffffffffff1614151515613047576040517f08c379a00000000000000000000000000000000000000000000000000000000081526004018080602001828103825260188152602001807f746f20616464726573732063616e6e6f7420626520307830000000000000000081525060200191505060405180910390fd5b613050826122ed565b81111515156130c7576040517f08c379a000000000000000000000000000000000000000000000000000000000815260040180806020018281038252601e8152602001807f6e6f7420656e6f7567682062616c616e636520746f207472616e73666572000081525060200191505060405180910390fd5b600260009054906101000a900473ffffffffffffffffffffffffffffffffffffffff1673ffffffffffffffffffffffffffffffffffffffff166321e5383a84836040518363ffffffff167c0100000000000000000000000000000000000000000000000000000000028152600401808373ffffffffffffffffffffffffffffffffffffffff1673ffffffffffffffffffffffffffffffffffffffff16815260200182815260200192505050600060405180830381600087803b15801561318c57600080fd5b505af11580156131a0573d6000803e3d6000fd5b50505050600260009054906101000a900473ffffffffffffffffffffffffffffffffffffffff1673ffffffffffffffffffffffffffffffffffffffff1663cf8eeb7e83836040518363ffffffff167c0100000000000000000000000000000000000000000000000000000000028152600401808373ffffffffffffffffffffffffffffffffffffffff1673ffffffffffffffffffffffffffffffffffffffff16815260200182815260200192505050600060405180830381600087803b15801561326957600080fd5b505af115801561327d573d6000803e3d6000fd5b505050508273ffffffffffffffffffffffffffffffffffffffff168273ffffffffffffffffffffffffffffffffffffffff167fddf252ad1be2c89b69c2b068fc378daa952ba7f163c4a11628f55a4df523b3ef836040518082815260200191505060405180910390a3505050565b600073ffffffffffffffffffffffffffffffffffffffff168273ffffffffffffffffffffffffffffffffffffffff1614151515613390576040517f08c379a00000000000000000000000000000000000000000000000000000000081526004018080602001828103825260188152602001807f746f20616464726573732063616e6e6f7420626520307830000000000000000081525060200191505060405180910390fd5b600260009054906101000a900473ffffffffffffffffffffffffffffffffffffffff1673ffffffffffffffffffffffffffffffffffffffff1663e468688e826040518263ffffffff167c010000000000000000000000000000000000000000000000000000000002815260040180828152602001915050600060405180830381600087803b15801561342157600080fd5b505af1158015613435573d6000803e3d6000fd5b50505050600260009054906101000a900473ffffffffffffffffffffffffffffffffffffffff1673ffffffffffffffffffffffffffffffffffffffff166321e5383a83836040518363ffffffff167c0100000000000000000000000000000000000000000000000000000000028152600401808373ffffffffffffffffffffffffffffffffffffffff1673ffffffffffffffffffffffffffffffffffffffff16815260200182815260200192505050600060405180830381600087803b1580156134fe57600080fd5b505af1158015613512573d6000803e3d6000fd5b505050508173ffffffffffffffffffffffffffffffffffffffff167f0f6798a560793a54c3bcfe86a93cde1e73087d944c0ea20544137d4121396885826040518082815260200191505060405180910390a28173ffffffffffffffffffffffffffffffffffffffff16600073ffffffffffffffffffffffffffffffffffffffff167fddf252ad1be2c89b69c2b068fc378daa952ba7f163c4a11628f55a4df523b3ef836040518082815260200191505060405180910390a35050565b600073ffffffffffffffffffffffffffffffffffffffff168273ffffffffffffffffffffffffffffffffffffffff1614151515613673576040517f08c379a000000000000000000000000000000000000000000000000000000000815260040180806020018281038252601c8152602001807f6275726e657220616464726573732063616e6e6f74206265203078300000000081525060200191505060405180910390fd5b61367c826122ed565b81111515156136f3576040517f08c379a000000000000000000000000000000000000000000000000000000000815260040180806020018281038252601a8152602001807f6e6f7420656e6f7567682062616c616e636520746f206275726e00000000000081525060200191505060405180910390fd5b600260009054906101000a900473ffffffffffffffffffffffffffffffffffffffff1673ffffffffffffffffffffffffffffffffffffffff1663cf8eeb7e83836040518363ffffffff167c0100000000000000000000000000000000000000000000000000000000028152600401808373ffffffffffffffffffffffffffffffffffffffff1673ffffffffffffffffffffffffffffffffffffffff16815260200182815260200192505050600060405180830381600087803b1580156137b857600080fd5b505af11580156137cc573d6000803e3d6000fd5b50505050600260009054906101000a900473ffffffffffffffffffffffffffffffffffffffff1673ffffffffffffffffffffffffffffffffffffffff166382838c76826040518263ffffffff167c010000000000000000000000000000000000000000000000000000000002815260040180828152602001915050600060405180830381600087803b15801561386157600080fd5b505af1158015613875573d6000803e3d6000fd5b505050508173ffffffffffffffffffffffffffffffffffffffff167fcc16f5dbb4873280815c1ee09dbd06736cffcc184412cf7a71a0fdb75d397ca5826040518082815260200191505060405180910390a2600073ffffffffffffffffffffffffffffffffffffffff168273ffffffffffffffffffffffffffffffffffffffff167fddf252ad1be2c89b69c2b068fc378daa952ba7f163c4a11628f55a4df523b3ef836040518082815260200191505060405180910390a35050565b600061393d8285612cc7565b905080831115613a5e57600260009054906101000a900473ffffffffffffffffffffffffffffffffffffffff1673ffffffffffffffffffffffffffffffffffffffff1663da46098c838660006040518463ffffffff167c0100000000000000000000000000000000000000000000000000000000028152600401808473ffffffffffffffffffffffffffffffffffffffff1673ffffffffffffffffffffffffffffffffffffffff1681526020018373ffffffffffffffffffffffffffffffffffffffff1673ffffffffffffffffffffffffffffffffffffffff1681526020018281526020019350505050600060405180830381600087803b158015613a4157600080fd5b505af1158015613a55573d6000803e3d6000fd5b50505050613b70565b600260009054906101000a900473ffffffffffffffffffffffffffffffffffffffff1673ffffffffffffffffffffffffffffffffffffffff166397d88cd28386866040518463ffffffff167c0100000000000000000000000000000000000000000000000000000000028152600401808473ffffffffffffffffffffffffffffffffffffffff1673ffffffffffffffffffffffffffffffffffffffff1681526020018373ffffffffffffffffffffffffffffffffffffffff1673ffffffffffffffffffffffffffffffffffffffff1681526020018281526020019350505050600060405180830381600087803b158015613b5757600080fd5b505af1158015613b6b573d6000803e3d6000fd5b505050505b8373ffffffffffffffffffffffffffffffffffffffff168273ffffffffffffffffffffffffffffffffffffffff167f8c5be1e5ebec7d5bd14f71427d1e84f3dd0314c0f7b2291e5b200ac8c7c3b925613bc98588612cc7565b6040518082815260200191505060405180910390a350505050565b600260009054906101000a900473ffffffffffffffffffffffffffffffffffffffff1673ffffffffffffffffffffffffffffffffffffffff16635fd72d168285856040518463ffffffff167c0100000000000000000000000000000000000000000000000000000000028152600401808473ffffffffffffffffffffffffffffffffffffffff1673ffffffffffffffffffffffffffffffffffffffff1681526020018373ffffffffffffffffffffffffffffffffffffffff1673ffffffffffffffffffffffffffffffffffffffff1681526020018281526020019350505050600060405180830381600087803b158015613cdd57600080fd5b505af1158015613cf1573d6000803e3d6000fd5b505050508273ffffffffffffffffffffffffffffffffffffffff168173ffffffffffffffffffffffffffffffffffffffff167f8c5be1e5ebec7d5bd14f71427d1e84f3dd0314c0f7b2291e5b200ac8c7c3b925613d4e8487612cc7565b6040518082815260200191505060405180910390a35050505600a165627a7a72305820a25d47dd4256e5114d209cf7f1e13944d4d16afc6788442380c871cb541ac6d500296080604052336000806101000a81548173ffffffffffffffffffffffffffffffffffffffff021916908373ffffffffffffffffffffffffffffffffffffffff1602179055506000600160006101000a81548173ffffffffffffffffffffffffffffffffffffffff021916908373ffffffffffffffffffffffffffffffffffffffff16021790555061124b806100956000396000f3006080604052600436106100e6576000357c0100000000000000000000000000000000000000000000000000000000900463ffffffff16806318160ddd146100eb57806321e5383a1461013057806327e235e3146101975780634e71e0c81461020857806355b6ed5c146102395780635fd72d16146102ca57806382838c76146103515780638da5cb5b1461039857806397d88cd214610409578063cf8eeb7e14610490578063da46098c146104f7578063e30443bc1461057e578063e30c3978146105e5578063e468688e14610656578063f2fde38b1461069d578063f7ea7a3d146106fa575b600080fd5b3480156100f757600080fd5b50d3801561010457600080fd5b50d2801561011157600080fd5b5061011a610741565b6040518082815260200191505060405180910390f35b34801561013c57600080fd5b50d3801561014957600080fd5b50d2801561015657600080fd5b50610195600480360381019080803573ffffffffffffffffffffffffffffffffffffffff16906020019092919080359060200190929190505050610747565b005b3480156101a357600080fd5b50d380156101b057600080fd5b50d280156101bd57600080fd5b506101f2600480360381019080803573ffffffffffffffffffffffffffffffffffffffff16906020019092919050505061083b565b6040518082815260200191505060405180910390f35b34801561021457600080fd5b50d3801561022157600080fd5b50d2801561022e57600080fd5b50610237610853565b005b34801561024557600080fd5b50d3801561025257600080fd5b50d2801561025f57600080fd5b506102b4600480360381019080803573ffffffffffffffffffffffffffffffffffffffff169060200190929190803573ffffffffffffffffffffffffffffffffffffffff1690602001909291905050506109f2565b6040518082815260200191505060405180910390f35b3480156102d657600080fd5b50d380156102e357600080fd5b50d280156102f057600080fd5b5061034f600480360381019080803573ffffffffffffffffffffffffffffffffffffffff169060200190929190803573ffffffffffffffffffffffffffffffffffffffff16906020019092919080359060200190929190505050610a17565b005b34801561035d57600080fd5b50d3801561036a57600080fd5b50d2801561037757600080fd5b5061039660048036038101908080359060200190929190505050610b86565b005b3480156103a457600080fd5b50d380156103b157600080fd5b50d280156103be57600080fd5b506103c7610bff565b604051808273ffffffffffffffffffffffffffffffffffffffff1673ffffffffffffffffffffffffffffffffffffffff16815260200191505060405180910390f35b34801561041557600080fd5b50d3801561042257600080fd5b50d2801561042f57600080fd5b5061048e600480360381019080803573ffffffffffffffffffffffffffffffffffffffff169060200190929190803573ffffffffffffffffffffffffffffffffffffffff16906020019092919080359060200190929190505050610c24565b005b34801561049c57600080fd5b50d380156104a957600080fd5b50d280156104b657600080fd5b506104f5600480360381019080803573ffffffffffffffffffffffffffffffffffffffff16906020019092919080359060200190929190505050610d93565b005b34801561050357600080fd5b50d3801561051057600080fd5b50d2801561051d57600080fd5b5061057c600480360381019080803573ffffffffffffffffffffffffffffffffffffffff169060200190929190803573ffffffffffffffffffffffffffffffffffffffff16906020019092919080359060200190929190505050610e87565b005b34801561058a57600080fd5b50d3801561059757600080fd5b50d280156105a457600080fd5b506105e3600480360381019080803573ffffffffffffffffffffffffffffffffffffffff16906020019092919080359060200190929190505050610f68565b005b3480156105f157600080fd5b50d380156105fe57600080fd5b50d2801561060b57600080fd5b5061061461100b565b604051808273ffffffffffffffffffffffffffffffffffffffff1673ffffffffffffffffffffffffffffffffffffffff16815260200191505060405180910390f35b34801561066257600080fd5b50d3801561066f57600080fd5b50d2801561067c57600080fd5b5061069b60048036038101908080359060200190929190505050611031565b005b3480156106a957600080fd5b50d380156106b657600080fd5b50d280156106c357600080fd5b506106f8600480360381019080803573ffffffffffffffffffffffffffffffffffffffff1690602001909291905050506110aa565b005b34801561070657600080fd5b50d3801561071357600080fd5b50d2801561072057600080fd5b5061073f60048036038101908080359060200190929190505050611185565b005b60045481565b6000809054906101000a900473ffffffffffffffffffffffffffffffffffffffff1673ffffffffffffffffffffffffffffffffffffffff163373ffffffffffffffffffffffffffffffffffffffff161415156107a257600080fd5b6107f481600360008573ffffffffffffffffffffffffffffffffffffffff1673ffffffffffffffffffffffffffffffffffffffff168152602001908152602001600020546111ea90919063ffffffff16565b600360008473ffffffffffffffffffffffffffffffffffffffff1673ffffffffffffffffffffffffffffffffffffffff168152602001908152602001600020819055505050565b60036020528060005260406000206000915090505481565b600160009054906101000a900473ffffffffffffffffffffffffffffffffffffffff1673ffffffffffffffffffffffffffffffffffffffff163373ffffffffffffffffffffffffffffffffffffffff161415156108af57600080fd5b600160009054906101000a900473ffffffffffffffffffffffffffffffffffffffff1673ffffffffffffffffffffffffffffffffffffffff166000809054906101000a900473ffffffffffffffffffffffffffffffffffffffff1673ffffffffffffffffffffffffffffffffffffffff167f8be0079c531659141344cd1fd0a4f28419497f9722a3daafe3b4186f6b6457e060405160405180910390a3600160009054906101000a900473ffffffffffffffffffffffffffffffffffffffff166000806101000a81548173ffffffffffffffffffffffffffffffffffffffff021916908373ffffffffffffffffffffffffffffffffffffffff1602179055506000600160006101000a81548173ffffffffffffffffffffffffffffffffffffffff021916908373ffffffffffffffffffffffffffffffffffffffff160217905550565b6002602052816000526040600020602052806000526040600020600091509150505481565b6000809054906101000a900473ffffffffffffffffffffffffffffffffffffffff1673ffffffffffffffffffffffffffffffffffffffff163373ffffffffffffffffffffffffffffffffffffffff16141515610a7257600080fd5b610b0181600260008673ffffffffffffffffffffffffffffffffffffffff1673ffffffffffffffffffffffffffffffffffffffff16815260200190815260200160002060008573ffffffffffffffffffffffffffffffffffffffff1673ffffffffffffffffffffffffffffffffffffffff168152602001908152602001600020546111ea90919063ffffffff16565b600260008573ffffffffffffffffffffffffffffffffffffffff1673ffffffffffffffffffffffffffffffffffffffff16815260200190815260200160002060008473ffffffffffffffffffffffffffffffffffffffff1673ffffffffffffffffffffffffffffffffffffffff16815260200190815260200160002081905550505050565b6000809054906101000a900473ffffffffffffffffffffffffffffffffffffffff1673ffffffffffffffffffffffffffffffffffffffff163373ffffffffffffffffffffffffffffffffffffffff16141515610be157600080fd5b610bf68160045461120690919063ffffffff16565b60048190555050565b6000809054906101000a900473ffffffffffffffffffffffffffffffffffffffff1681565b6000809054906101000a900473ffffffffffffffffffffffffffffffffffffffff1673ffffffffffffffffffffffffffffffffffffffff163373ffffffffffffffffffffffffffffffffffffffff16141515610c7f57600080fd5b610d0e81600260008673ffffffffffffffffffffffffffffffffffffffff1673ffffffffffffffffffffffffffffffffffffffff16815260200190815260200160002060008573ffffffffffffffffffffffffffffffffffffffff1673ffffffffffffffffffffffffffffffffffffffff1681526020019081526020016000205461120690919063ffffffff16565b600260008573ffffffffffffffffffffffffffffffffffffffff1673ffffffffffffffffffffffffffffffffffffffff16815260200190815260200160002060008473ffffffffffffffffffffffffffffffffffffffff1673ffffffffffffffffffffffffffffffffffffffff16815260200190815260200160002081905550505050565b6000809054906101000a900473ffffffffffffffffffffffffffffffffffffffff1673ffffffffffffffffffffffffffffffffffffffff163373ffffffffffffffffffffffffffffffffffffffff16141515610dee57600080fd5b610e4081600360008573ffffffffffffffffffffffffffffffffffffffff1673ffffffffffffffffffffffffffffffffffffffff1681526020019081526020016000205461120690919063ffffffff16565b600360008473ffffffffffffffffffffffffffffffffffffffff1673ffffffffffffffffffffffffffffffffffffffff168152602001908152602001600020819055505050565b6000809054906101000a900473ffffffffffffffffffffffffffffffffffffffff1673ffffffffffffffffffffffffffffffffffffffff163373ffffffffffffffffffffffffffffffffffffffff16141515610ee257600080fd5b80600260008573ffffffffffffffffffffffffffffffffffffffff1673ffffffffffffffffffffffffffffffffffffffff16815260200190815260200160002060008473ffffffffffffffffffffffffffffffffffffffff1673ffffffffffffffffffffffffffffffffffffffff16815260200190815260200160002081905550505050565b6000809054906101000a900473ffffffffffffffffffffffffffffffffffffffff1673ffffffffffffffffffffffffffffffffffffffff163373ffffffffffffffffffffffffffffffffffffffff16141515610fc357600080fd5b80600360008473ffffffffffffffffffffffffffffffffffffffff1673ffffffffffffffffffffffffffffffffffffffff168152602001908152602001600020819055505050565b600160009054906101000a900473ffffffffffffffffffffffffffffffffffffffff1681565b6000809054906101000a900473ffffffffffffffffffffffffffffffffffffffff1673ffffffffffffffffffffffffffffffffffffffff163373ffffffffffffffffffffffffffffffffffffffff1614151561108c57600080fd5b6110a1816004546111ea90919063ffffffff16565b60048190555050565b6000809054906101000a900473ffffffffffffffffffffffffffffffffffffffff1673ffffffffffffffffffffffffffffffffffffffff163373ffffffffffffffffffffffffffffffffffffffff1614151561110557600080fd5b600073ffffffffffffffffffffffffffffffffffffffff168173ffffffffffffffffffffffffffffffffffffffff161415151561114157600080fd5b80600160006101000a81548173ffffffffffffffffffffffffffffffffffffffff021916908373ffffffffffffffffffffffffffffffffffffffff16021790555050565b6000809054906101000a900473ffffffffffffffffffffffffffffffffffffffff1673ffffffffffffffffffffffffffffffffffffffff163373ffffffffffffffffffffffffffffffffffffffff161415156111e057600080fd5b8060048190555050565b600081830190508281101515156111fd57fe5b80905092915050565b600082821115151561121457fe5b8183039050929150505600a165627a7a72305820573a8dba98f07e334fe21a6bc2b8df2f4ccdcb08292eff87b57b23403e94057800296080604052336000806101000a81548173ffffffffffffffffffffffffffffffffffffffff021916908373ffffffffffffffffffffffffffffffffffffffff1602179055506000600160006101000a81548173ffffffffffffffffffffffffffffffffffffffff021916908373ffffffffffffffffffffffffffffffffffffffff1602179055506106e4806100956000396000f300608060405260043610610078576000357c0100000000000000000000000000000000000000000000000000000000900463ffffffff16806303d29d281461007d5780634e71e0c8146100e65780638da5cb5b14610117578063dbac26e914610188578063e30c3978146101fd578063f2fde38b1461026e575b600080fd5b34801561008957600080fd5b50d3801561009657600080fd5b50d280156100a357600080fd5b506100e4600480360381019080803573ffffffffffffffffffffffffffffffffffffffff1690602001909291908035151590602001909291905050506102cb565b005b3480156100f257600080fd5b50d380156100ff57600080fd5b50d2801561010c57600080fd5b506101156103d3565b005b34801561012357600080fd5b50d3801561013057600080fd5b50d2801561013d57600080fd5b50610146610572565b604051808273ffffffffffffffffffffffffffffffffffffffff1673ffffffffffffffffffffffffffffffffffffffff16815260200191505060405180910390f35b34801561019457600080fd5b50d380156101a157600080fd5b50d280156101ae57600080fd5b506101e3600480360381019080803573ffffffffffffffffffffffffffffffffffffffff169060200190929190505050610597565b604051808215151515815260200191505060405180910390f35b34801561020957600080fd5b50d3801561021657600080fd5b50d2801561022357600080fd5b5061022c6105b7565b604051808273ffffffffffffffffffffffffffffffffffffffff1673ffffffffffffffffffffffffffffffffffffffff16815260200191505060405180910390f35b34801561027a57600080fd5b50d3801561028757600080fd5b50d2801561029457600080fd5b506102c9600480360381019080803573ffffffffffffffffffffffffffffffffffffffff1690602001909291905050506105dd565b005b6000809054906101000a900473ffffffffffffffffffffffffffffffffffffffff1673ffffffffffffffffffffffffffffffffffffffff163373ffffffffffffffffffffffffffffffffffffffff1614151561032657600080fd5b80600260008473ffffffffffffffffffffffffffffffffffffffff1673ffffffffffffffffffffffffffffffffffffffff16815260200190815260200160002060006101000a81548160ff0219169083151502179055508173ffffffffffffffffffffffffffffffffffffffff167f5019745a56bcdd97726f5b35a7bfcb97ffa4e40b51bc2f6f764c6671e1bef6d482604051808215151515815260200191505060405180910390a25050565b600160009054906101000a900473ffffffffffffffffffffffffffffffffffffffff1673ffffffffffffffffffffffffffffffffffffffff163373ffffffffffffffffffffffffffffffffffffffff1614151561042f57600080fd5b600160009054906101000a900473ffffffffffffffffffffffffffffffffffffffff1673ffffffffffffffffffffffffffffffffffffffff166000809054906101000a900473ffffffffffffffffffffffffffffffffffffffff1673ffffffffffffffffffffffffffffffffffffffff167f8be0079c531659141344cd1fd0a4f28419497f9722a3daafe3b4186f6b6457e060405160405180910390a3600160009054906101000a900473ffffffffffffffffffffffffffffffffffffffff166000806101000a81548173ffffffffffffffffffffffffffffffffffffffff021916908373ffffffffffffffffffffffffffffffffffffffff1602179055506000600160006101000a81548173ffffffffffffffffffffffffffffffffffffffff021916908373ffffffffffffffffffffffffffffffffffffffff160217905550565b6000809054906101000a900473ffffffffffffffffffffffffffffffffffffffff1681565b60026020528060005260406000206000915054906101000a900460ff1681565b600160009054906101000a900473ffffffffffffffffffffffffffffffffffffffff1681565b6000809054906101000a900473ffffffffffffffffffffffffffffffffffffffff1673ffffffffffffffffffffffffffffffffffffffff163373ffffffffffffffffffffffffffffffffffffffff1614151561063857600080fd5b600073ffffffffffffffffffffffffffffffffffffffff168173ffffffffffffffffffffffffffffffffffffffff161415151561067457600080fd5b80600160006101000a81548173ffffffffffffffffffffffffffffffffffffffff021916908373ffffffffffffffffffffffffffffffffffffffff160217905550505600a165627a7a72305820bbf7a795659c0cb4c565f07f9e72770d854dfa794daa5c004abb24d8eee543f90029",
    "source": "pragma solidity ^0.4.24;\n\nimport \"./dataStorage/Balances.sol\";\nimport \"./dataStorage/Blacklist.sol\";\nimport \"openzeppelin-solidity/contracts/math/SafeMath.sol\";\nimport \"openzeppelin-solidity/contracts/token/ERC20/ERC20.sol\";\nimport \"../helpers/Lockable.sol\";\nimport \"../helpers/Pausable.sol\";\n\n/**\n* @title Carbon Dollar\n* @notice A simple mintable and burnable erc20\n*/\ncontract CarbonDollar is ERC20, Pausable, Lockable {\n    using SafeMath for uint256;\n\n    /** Events */\n    event Mint(address indexed to, uint256 value);\n    event Burn(address indexed burner, uint256 value);\n    event Transfer(address indexed from, address indexed to, uint256 value);\n    event Approval(address indexed owner, address indexed spender, uint256 value);\n\n    Balances public balances;\n    Blacklist public blacklist;\n\n    /**\n    * @dev create a new CarbonDollar with new storage contracts\n    **/\n    constructor () public {\n        balances = new Balances();\n        blacklist = new Blacklist();\n    }\n\n    /** \n        ERC20 Metadata\n    */\n    string public constant name = \"CUSD\";\n    string public constant symbol = \"CUSD\";\n    uint8 public constant decimals = 18;\n\n    /** Modifiers **/\n\n    /** @notice Checks whether a user's blacklisted status\n     * @param _user The address of the user\n     * @return True if not blacklisted, False if blacklisted\n    **/\n    modifier userNotBlacklisted(address _user) {\n        require(!blacklist.blacklisted(_user), \"User's assets are temporarily frozen\");\n        _;\n    }\n\n    /** Functions **/\n\n    /**\n    * @notice Allows user to mint if they have the appropriate permissions\n    * @param _to The address of the receiver\n    * @param _amount The number of tokens to mint\n    */\n    function mint(address _to, uint256 _amount) public userNotBlacklisted(_to) onlyOwner whenNotPaused {\n        _mint(_to, _amount);\n    }\n\n    /**\n    * @notice Remove CUSD from supply\n    * @param _amount The number of tokens to burn\n    * @return `true` if successful and `false` if unsuccessful\n    */\n    function burn(uint256 _amount) public userNotBlacklisted(msg.sender) whenNotPaused {\n        _burn(msg.sender, _amount);\n    }\n\n    /**\n    * @notice Implements ERC-20 standard approve function. Locked or disabled by default to protect against\n    * double spend attacks. To modify allowances, clients should call safer increase/decreaseApproval methods.\n    * Upon construction, all calls to approve() will revert unless this contract owner explicitly unlocks approve()\n    */\n    function approve(address _spender, uint256 _value) \n    public userNotBlacklisted(_spender) userNotBlacklisted(msg.sender) whenNotPaused whenUnlocked returns (bool) {\n        balances.setAllowance(msg.sender, _spender, _value);\n        emit Approval(msg.sender, _spender, _value);\n        return true;\n    }\n\n    /**\n     * @dev Increase the amount of tokens that an owner allowed to a spender.\n     * @notice increaseApproval should be used instead of approve when the user's allowance\n     * is greater than 0. Using increaseApproval protects against potential double-spend attacks\n     * by moving the check of whether the user has spent their allowance to the time that the transaction \n     * is mined, removing the user's ability to double-spend\n     * @param _spender The address which will spend the funds.\n     * @param _addedValue The amount of tokens to increase the allowance by.\n     */\n    function increaseApproval(address _spender, uint256 _addedValue) \n    public userNotBlacklisted(_spender) userNotBlacklisted(msg.sender) whenNotPaused returns (bool) {\n        _increaseApproval(_spender, _addedValue, msg.sender);\n        return true;\n    }\n\n    /**\n     * @dev Decrease the amount of tokens that an owner allowed to a spender.\n     * @notice decreaseApproval should be used instead of approve when the user's allowance\n     * is greater than 0. Using decreaseApproval protects against potential double-spend attacks\n     * by moving the check of whether the user has spent their allowance to the time that the transaction \n     * is mined, removing the user's ability to double-spend\n     * @param _spender The address which will spend the funds.\n     * @param _subtractedValue The amount of tokens to decrease the allowance by.\n     */\n    function decreaseApproval(address _spender, uint256 _subtractedValue) \n    public userNotBlacklisted(_spender) userNotBlacklisted(msg.sender) whenNotPaused returns (bool) {\n        _decreaseApproval(_spender, _subtractedValue, msg.sender);\n        return true;\n    }\n\n    /**\n    * @notice Initiates a \"send\" operation towards another user. See `transferFrom` for details.\n    * @param _to The address of the receiver. This user must not be blacklisted\n    * @param _amount The number of tokens to transfer\n    *\n    * @return `true` if successful \n    */\n    function transfer(address _to, uint256 _amount) public userNotBlacklisted(_to) userNotBlacklisted(msg.sender) whenNotPaused returns (bool) {\n        _transfer(_to, msg.sender, _amount);\n        return true;\n    }\n\n    /**\n    * @notice Initiates a transfer operation between address `_from` and `_to`. Requires that the\n    * message sender is an approved spender on the _from account.\n    * @dev When implemented, it should use the transferFromConditionsRequired() modifier.\n    * @param _to The address of the recipient. This address must not be blacklisted.\n    * @param _from The address of the origin of funds. This address _could_ be blacklisted, because\n    * a regulator may want to transfer tokens out of a blacklisted account, for example.\n    * In order to do so, the regulator would have to add themselves as an approved spender\n    * on the account via `addBlacklistAddressSpender()`, and would then be able to transfer tokens out of it.\n    * @param _amount The number of tokens to transfer\n    * @return `true` if successful \n    */\n    function transferFrom(address _from, address _to, uint256 _amount) \n    public userNotBlacklisted(_to) userNotBlacklisted(_from) userNotBlacklisted(msg.sender) whenNotPaused returns (bool) {\n        require(_amount <= allowance(_from, msg.sender),\"not enough allowance to transfer\");\n        _transfer(_to, _from, _amount);\n        balances.subAllowance(_from, msg.sender, _amount);\n        return true;\n    }\n\n    function setBlacklistStatus(address _user, bool _blacklisted) public onlyOwner {\n        blacklist.setBlacklistStatus(_user, _blacklisted);\n    }\n\n    /**\n    * ERC20 standard functions\n    */\n    function allowance(address owner, address spender) public view returns (uint256) {\n        return balances.allowances(owner, spender);\n    }\n\n    function totalSupply() public view returns (uint256) {\n        return balances.totalSupply();\n    }\n\n    function balanceOf(address _addr) public view returns (uint256) {\n        return balances.balances(_addr);\n    }\n\n\n    /** Internal functions **/\n    \n    function _decreaseApproval(address _spender, uint256 _subtractedValue, address _tokenHolder) internal {\n        uint256 oldValue = allowance(_tokenHolder, _spender);\n        if (_subtractedValue > oldValue) {\n            balances.setAllowance(_tokenHolder, _spender, 0);\n        } else {\n            balances.subAllowance(_tokenHolder, _spender, _subtractedValue);\n        }\n        emit Approval(_tokenHolder, _spender, allowance(_tokenHolder, _spender));\n    }\n\n    function _increaseApproval(address _spender, uint256 _addedValue, address _tokenHolder) internal {\n        balances.addAllowance(_tokenHolder, _spender, _addedValue);\n        emit Approval(_tokenHolder, _spender, allowance(_tokenHolder, _spender));\n    }\n\n    function _burn(address _tokensOf, uint256 _amount) internal {\n        require(_tokensOf != address(0),\"burner address cannot be 0x0\");\n        require(_amount <= balanceOf(_tokensOf),\"not enough balance to burn\");\n        // no need to require value <= totalSupply, since that would imply the\n        // sender's balance is greater than the totalSupply, which *should* be an assertion failure\n        balances.subBalance(_tokensOf, _amount);\n        balances.subTotalSupply(_amount);\n        emit Burn(_tokensOf, _amount);\n        emit Transfer(_tokensOf, address(0), _amount);\n    }\n\n    function _mint(address _to, uint256 _amount) internal {\n        require(_to != address(0),\"to address cannot be 0x0\");\n        balances.addTotalSupply(_amount);\n        balances.addBalance(_to, _amount);\n        emit Mint(_to, _amount);\n        emit Transfer(address(0), _to, _amount);\n    }\n\n    function _transfer(address _to, address _from, uint256 _amount) internal {\n        require(_to != address(0),\"to address cannot be 0x0\");\n        require(_amount <= balanceOf(_from),\"not enough balance to transfer\");\n\n        balances.addBalance(_to, _amount);\n        balances.subBalance(_from, _amount);\n        emit Transfer(_from, _to, _amount);\n    }\n\n}",
    "sourcePath": "/Users/nicholaspai/Carbon/fiatgateway_troncontracts/contracts/tokens/CarbonDollar.sol",
    "compiler": {
        "name": "solc",
        "version": "0.4.25+commit.69a1e720.Emscripten.clang"
    },
    "schemaVersion": "2.0.1",
    "updatedAt": "2019-02-19T18:03:17.442Z"
}